:020000040800F2
:10000000700C0020D50E0008F1020008D50300088E
:10001000D9030008DD030008E10300080000000028
:10002000000000000000000000000000E5030008E0
:10003000E703000800000000E9030008EB030008E4
:10004000EF0E0008EF0E0008EF0E0008EF0E00089C
:10005000EF0E0008EF0E0008EF0E0008EF03000897
:10006000F1030008F3030008EF0E0008EF0E00088C
:10007000EF0E0008EF0E0008EF0E0008EF0E00086C
:10008000EF0E0008EF0E0008EF0E0008EF0E00085C
:10009000D1030008EF0E0008EF0E0008ED03000882
:1000A000EF0E0008EF0E0008EF0E0008EF0E00083C
:1000B000EF0E0008EF0E0008EF0E0008EF0E00082C
:1000C000EF0E0008EF0E0008EF0E0008EF0E00081C
:1000D000EF0E0008EF0E0008F30200086D030008A1
:1000E000EF0E0008EF0E0008EF0E00080000000001
:1000F0000000000000000000000000000000000000
:100100000000000000000000EF0E0008EF0E0008E5
:10011000EF0E0008EF0E0008EF0E0008EF0E0008CB
:10012000EF0E0008EF0E0008EF0E0008EF0E0008BB
:10013000EF0E0008EF0E0008EF0E0008EF0E0008AB
:10014000D3030008EF0E0008EF0E0008EF0E0008C2
:10015000DFF80CD002F0D6F9004800471B02000877
:10016000700C0020EFF30980704780F30988704716
:10017000EFF30880704780F30888704740BA7047F3
:10018000C0BA704710B54FF4E06001F0E5FA4FF4E3
:10019000165000F065F94FF4E13000F0B2F900F0CC
:1001A00099FB042001F027FB10BD10B527A002F039
:1001B000DBF928A002F0D8F92BA002F0D5F9002332
:1001C0001A46012131A002F0CFF93CA002F0CCF98F
:1001D00010BD014601EBC102D2004FF0E0235A618D
:1001E00000229A611A46126942F001021A6100BFA8
:1001F0004FF0E022106900F001021AB100F48032E1
:10020000002AF5D04FF0E022126922F001024FF0EF
:10021000E0231A6100229A6170470024FFF7B2FFC1
:10022000FFF7C3FF00F036FD0FE042F21070FFF75A
:10023000D0FF2046611CCCB2322806DB002400F03F
:1002400005FD00F0F4FC00F08EFBEEE70D0A0D0A50
:1002500000000000205C20202020202020202020E2
:10026000202F0D0A000000002D2050617065726281
:10027000616E6B6572202D205368726564646572CF
:100280002053797374656D0D0A000000202F202023
:100290002020202020202020205C2020426F6F740E
:1002A0006C6F616465722056657273696F6E20258C
:1002B000642E25642E2564200D0A000020202020B5
:1002C000202020202020202020202020436F707913
:1002D000726967687420627920706170657262610A
:1002E0006E6B6572207465616D0D0A0D0A00000069
:1002F000704710B540F225513E4801F039FF38B340
:1003000040F225513B4801F05DFF3B480078FF2853
:100310001FD1384801F0ACFE3849394A1278885468
:10032000084637490978405CFF2806D10120354945
:10033000087000203249087017E031480078401CEE
:100340002F490870084600780C280EDB0020087042
:100350000BE0284801F08CFEC1B2274882888088D3
:10036000401C254B98802848815410BD10B540F2A0
:100370002551264801F0FCFE002828D040F22551E6
:10038000224801F01FFF214801F072FE2049087049
:100390001948007860B1FF2814D1084601781D483B
:1003A00002880088401C1B4B1880174881540DE0C0
:1003B000FF201149087000201649088016A002F09D
:1003C000D3F803E01AA002F0CFF800BF00BF10BDC1
:1003D0007047704700BFFEE700BFFEE700BFFEE7C3
:1003E00000BFFEE77047704770477047704770471F
:1003F000704770470044004008000020580000206B
:1004000000000020020000200010002000480040F2
:100410000100002010000020506C6561736520739E
:10042000656E64206669726D776172650D0A000001
:10043000696E70757420657272210D0A00000000EB
:1004400070B504460D4600BF8021584801F07AFE81
:100450000028F9D0A1B2554801F006FE204670BD33
:1004600010B586B004460121084601F010F90121BB
:10047000042001F00CF90121480401F015F90420D1
:10048000ADF8140018208DF8170003208DF8160021
:1004900005A9474800F090FD0820ADF8140004209D
:1004A0008DF8170005A9424800F086FD26208DF83A
:1004B000000000208DF801008DF8020001208DF869
:1004C0000300684601F04DF901940020ADF80800E2
:1004D000ADF80A00ADF80C00ADF810000C20ADF836
:1004E0000E0001A9334801F0C6FC012240F225515B
:1004F000304801F058FD01212E4801F048FD06B0BA
:1005000010BD10B586B004460121084601F0BFF8C1
:100510000121082001F0BBF80121880401F0C4F892
:100520004FF48060ADF8140018208DF817000320F8
:100530008DF8160005A9204800F03EFD4FF400603C
:10054000ADF8140004208DF8170005A91A4800F032
:1005500033FD27208DF8000000208DF801000320D6
:100560008DF8020001208DF80300684601F0F9F8CB
:1005700001940020ADF80800ADF80A00ADF80C00B9
:10058000ADF810000C20ADF80E0001A9074801F0ED
:1005900072FC012240F22551044801F004FD0121C2
:1005A000024801F0F4FC06B010BD00000048004015
:1005B0000008014000440040000C014030B50146F5
:1005C00000220023002400250878242801D00020E0
:1005D00030BD491C491C491C0B78491C0C7804EBA4
:1005E000032085B2002202E0491C501CC2B2AA427C
:1005F000FADB491C0878FF2801D00020E8E7012039
:10060000E6E7F0B589B007460E461446202101A85A
:1006100001F03BFF002524208DF8040030128DF8F6
:100620000500F0B28DF8060020128DF80700E0B248
:100630008DF8080000BF06E0397801AA681D115442
:100640007F1C681CC5B2A542F6DBFF21601D01AA14
:10065000115400250DE000BF8021624801F072FDB9
:100660000028F9D001A8415D5E4801F0FDFC681C3E
:10067000C5B2A01D8542EEDB012009B0F0BD10B56A
:1006800000245948007801287ED158480021016093
:100690004160816056490A6802604A684260896820
:1006A00081605348002101604160816051480160D0
:1006B000416081604D48FFF781FF012873D14B48AD
:1006C0008178407801EB002084B245F65111601A20
:1006D0008C4225D007DCA4F5B240A0F1050038B16A
:1006E000022876D111E0012829D0022871D130E00A
:1006F000002040490870012244F605113D48FFF7EB
:1007000080FF3DA001F030FF67E0474800781C28DB
:1007100002DB00204449087044A001F025FF5CE0A2
:1007200000203449087048708870032245F6511142
:100730003048FFF766FF43A001F016FF4DE00022AE
:1007400045F652112B48FFF75CFF45A001F00CFF66
:1007500043E02648007825498978C943884223D157
:10076000224840782149C978C94388421CD10422D3
:1007700045F652111F48FFF744FF1C4841780078A6
:1007800001EB00203D4900E02BE04880FF2008708D
:10079000002088800846418839A001F0E5FE3EA08F
:1007A00001F0E2FE13E019E00020124908704870E1
:1007B0008870C870042245F652110E48FFF721FFD9
:1007C00000202E494880087038A001F0CDFE04E0DA
:1007D000FFE73BA001F0C8FE00BF00BF00200249B8
:1007E000087010BD00440040020000204C000020B2
:1007F00058000020640000204745542053485245CB
:10080000444445525F4745545F535441544520206A
:1008100067476574576F726B5374617465203D2030
:100820003078300D0A0000000300002047455420B6
:1008300053485245444445525F4C4F434B2E2E2E55
:100840000D0A0000474554204F54415F564552530E
:10085000494F4E5F4745542E2E2E0D0A00000000D2
:10086000474554204F54415F56455253494F4E5FC0
:100870005550444154452E2E2E0D0A0008000020EC
:10088000E4BBA3E7A081E995BFE5BAA63A25644297
:10089000797465730D0A00004765740973697A6598
:1008A000206F6B202E2E2E0D0A0000004765740964
:1008B00073697A6520657272202E2E2E0D0A000053
:1008C00047657420616E64726F696420636D642E85
:1008D0002E0D0A0008B50121042000F0D8FE1020DA
:1008E000ADF800008DF8030001208DF80200694684
:1008F000394800F061FB08BD08B50121082000F06F
:10090000C6FE1020ADF800008DF8030001208DF820
:1009100002006946314800F04FFB10212F4800F0DB
:10092000FAFB08BD08B50121082000F0B0FE012146
:100930002B4800F012FC01212A4800F00EFC4FF475
:100940008070ADF8000010208DF8030001208DF8B4
:1009500002006946214800F02FFB4FF480711F48C8
:1009600000F0D9FB08BD10B51F48007838B1102140
:10097000194800F0D0FB00201B49087006E0102148
:10098000154800F0C6FB01201749087010BD10B5CE
:10099000164800781C2804DB1021104800F0BBFB2F
:1009A00010BD12480078001D1049087008460078F4
:1009B000142807DB1021094800F0ADFB0CA001F062
:1009C000D3FDEDE71021054800F0A3FB0CA001F0DA
:1009D000CBFD00BFE4E7000000080140000C01402F
:1009E000000430000002300004000020030000205A
:1009F0004C4F434B5F434C4F53450D0A00000000E2
:100A00004C4F434B5F4F50454E0D0A00014608883E
:100A1000704730B503460C461546002207E01846DD
:100A2000FFF7F4FF24F812009B1C501C82B2AA426C
:100A3000F5DB30BD2DE9F04105460E461746002492
:100A400007E036F81410284601F05BF8AD1C601C76
:100A500084B2BC42F5DBBDE8F0812DE9F74FADF57E
:100A6000806D80468A46B8F1006F02D336488045D3
:100A700003D30DF20C4DBDE8F08FDDF80874A8F13A
:100A8000006B4FEA9B25CBF34809C9F50074A742D8
:100A900000DC3C4600F0EDFE4FE04FF0006101EB62
:100AA00085208A146946FFF7B4FF00260AE009EBA7
:100AB00006003DF810004FF6FF71884200D003E0B9
:100AC000701C86B2A642F2DB00BFA6421DDA4FF0D0
:100AD000006101EB852000F011FF1CA001F044FD36
:100AE000002607E03AF8160006EB09012DF8110080
:100AF000701C86B2A642F5DB4FF0006101EB852049
:100B00008A146946FFF796FF04E0224651464046A4
:100B1000FFF790FFA74200D110E06D1C4FF00009D5
:100B20000AEB440A08EB4408381B87B2B7F5007F8C
:100B300002DD4FF4007400E03C46AEE700BF00F079
:100B4000A4FE00BF95E70000000002084572617333
:100B5000650D0A0010B5044620687F490840B0F1D1
:100B6000005F08D160687D4908602068FFF703FBDB
:100B70007A480068804710BD10B50446606800F0F0
:100B80007F40B0F1006F05D175A001F0EDFC20466B
:100B9000FFF7E0FF79A001F0E7FC00207E49087034
:100BA0007E4908807E4908807E49088010BD2DE975
:100BB000F043ADF2044D05460F46904600243E46F4
:100BC00079A001F0D1FC29467DA001F0CDFCA14621
:100BD0001CE07078000201A921F8140001A830F887
:100BE00014003178084401A921F81400B61C601CD7
:100BF00084B2B4F5007F07D100244FF40072284678
:100C0000FFF72BFF05F5806509F10209C145E0D327
:100C100024B1224601A92846FFF71FFF05EB440532
:100C20006CA001F0A1FC0DF2044DBDE8F08310B5FD
:100C300059480078FE2808D15A4802886A496B480A
:100C4000FFF7B5FF6948FFF797FF10BD10B5534890
:100C50000088F0B15148008865490988884214D15C
:100C60004E4800884F49088000204C490880604960
:100C7000088060A001F078FC4A48018862A001F079
:100C800073FCFE204449087003E04448008858493A
:100C9000088010BD08B5002000906048FFF7B6FE40
:100CA0000090BDF80000A0F5AA405538002826D0D5
:100CB000A0F58850113828B1A0F5194099380028BE
:100CC00035D10FE054A001F04FFC55A001F04CFCD1
:100CD0005AA001F049FC50A001F046FC4348FFF740
:100CE00039FF36E04CA001F03FFC5BA001F03CFC7A
:100CF00060A001F039FC48A001F036FC29E046A0D4
:100D000001F032FC62A001F02FFC43A001F02CFCAA
:100D10004FF6FF700090012269464048FFF79DFEA4
:100D2000002245F652116248FFF76BFC11E04FF6C6
:100D3000FF700090012269463848FFF78EFE36A00A
:100D400001F012FC5BA001F00FFC33A001F00CFCE1
:100D500000BF00BF08BD00000000FE2F18000020EB
:100D6000BFAACABCD6B4D0D0464C415348D3C3BBAB
:100D7000A7B4FAC2EB21210D0A000000B7C7464C08
:100D8000415348D3A6D3C3B3CCD0F22CCEDEB7A800
:100D9000D6B4D0D0210D0A00080000201000002099
:100DA00012000020140000205374617469632077DE
:100DB0007269746520666C6173682E2E2E0D0A00B0
:100DC00077726974652061646472203D20307825F3
:100DD000780D0A00577269746520666C617368202B
:100DE0004F4B2E2E2E0D0A0000100020003C000854
:100DF0001C000020D3C3BBA7B3CCD0F2BDD3CAD54F
:100E0000CDEAB3C9210D0A00B4FAC2EBB3A4B6C847
:100E10003A256442797465730D0A000000E8010800
:100E20002D2D2D2D2D2048617665204669726D7718
:100E3000617265202D2D2D2D2D0D0A002D2D2D2DAE
:100E40002D2052756E204669726D77617265212082
:100E50002D2D2D2D2D0D0A002D2D2D2D2D204F6EDC
:100E60006520446F776E6C6F6164202D2D2D2D2DC4
:100E70000D0A00002D2D2D2D2D204E6F204669725C
:100E80006D7761726521202D2D2D2D2D0D0A00000D
:100E90002D2D2D2D2D2055706461746520466972AD
:100EA0006D77617265202D2D2D2D2D0D0A0000000E
:100EB000640000202D2D2D2D2D20666C617368207F
:100EC0006572726F722C20696E6974202D2D2D2D24
:100ED0002D0D0A000648804706480047FEE7FEE75A
:100EE000FEE7FEE7FEE7FEE7FEE7FEE7FEE7FEE7DA
:100EF000092300085101000810B50446CC4884427B
:100F000008D10121042000F0E9FB0021042000F0B9
:100F1000E5FB46E0C748844208D10121082000F0E3
:100F2000DDFB0021082000F0D9FB3AE0C2488442F2
:100F300008D10121102000F0D1FB0021102000F089
:100F4000CDFB2EE0BD48844208D10121202000F0D5
:100F5000C5FB0021202000F0C1FB22E0B8488442FC
:100F600008D10121402000F0B9FB0021402000F011
:100F7000B5FB16E0B348844208D10121802000F07F
:100F8000ADFB0021802000F0A9FB0AE0AE488442BE
:100F900007D10121801500F0A1FB0021A01500F070
:100FA0009DFB10BD10B50121084600F097FB002104
:100FB000012000F093FB10BD2DE9F0410246002511
:100FC0000026002000230024002791F803C00CF025
:100FD0000F0591F803C00CF0100CBCF1000F03D00A
:100FE00091F802C04CEA050591F800C0BCF1000F71
:100FF00031D0146800202BE04FF0010C0CFA00F304
:10100000B1F800C00CEA03069E4220D183004FF0E5
:101010000F0C0CFA03F7BC4305FA03FC4CEA04047A
:1010200091F803C0BCF1280F06D14FF0010C0CFA67
:1010300000FCC2F814C00AE091F803C0BCF1480FEC
:1010400005D14FF0010C0CFA00FCC2F810C0401C96
:101050000828D1D31460B1F800C0BCF1FF0F34DD13
:10106000546800202EE000F1080C4FF0010808FA47
:101070000CF3B1F800C00CEA03069E4221D18300B4
:101080004FF00F0C0CFA03F7BC4305FA03FC4CEAD3
:10109000040491F803C0BCF1280F05D100F1080C3D
:1010A00008FA0CF8C2F8148091F803C0BCF1480F9C
:1010B00007D100F1080C4FF0010808FA0CF8C2F84B
:1010C0001080401C0828CED35460BDE8F0814FF654
:1010D000FF710180022181700421C17070470246B6
:1010E000002093680B400BB1012000E00020704706
:1010F0000146886880B2704702460020D3680B40E2
:101100000BB1012000E0002070470146C86880B2A2
:10111000704701617047416170470AB1016100E0A9
:1011200041617047C16070474FF480320A43826169
:101130008161826182698269704702460020434B67
:1011400018684FF68073184040EA021008433F4B7E
:10115000186070473E49C8617047F0B50A460023E1
:1011600000240021002500F00046B6F1004F02D116
:10117000364EF16901E0354E7168C0F3034583B224
:1011800000F44016B6F5401F08D121F070612F4ED3
:10119000766826F070662D4F7E6012E000F48016AF
:1011A000B6F5801F06D1032606FA05F4A14341F0E7
:1011B000706106E0460D360103FA06F6B14341F0D0
:1011C000706122B1460D360103FA06F6314300F094
:1011D0000046B6F1004F02D11C4EF16101E01B4EFA
:1011E0007160F0BD30B500228B071C0F0F2303FA8E
:1011F00004F2164B08338C1053F824309343134CED
:1012000008348D1044F8253023468C1053F82430D0
:101210008C07240F00FA04F423430C4C08348D107F
:1012200044F8253030BD0A49DC31086070470000C1
:1012300000080140000C0140001001400014014072
:1012400000180140001C0140002001400000014046
:1012500000002042FB48006840F00100F9490860A6
:1012600008464068F8490840F64948600846006862
:10127000F6490840F34908600846006820F48020D9
:1012800008600846406820F4FE0048600846006890
:1012900020F0A05008604FF47F0088600020C862F2
:1012A0007047E849096821F48031E64A1160114627
:1012B000096821F480211160B0F5803F03D0B0F5BA
:1012C000802F0ED106E0DF49096841F48031DD4A04
:1012D000116007E0DB49096841F4A021D94A116097
:1012E00000E000BF00BF704710B501460022002398
:1012F00000204A11012A02D1D24C236806E0022ABA
:1013000002D1D04C236A01E0CE4C636A01F01F0287
:10131000012494401C400CB1012000E0002010BDCD
:1013200038B5002000900024002500BF3120FFF7D1
:10133000DBFF05460098401C00900098B0F5A06FB8
:1013400001D0002DF2D03120FFF7CEFF08B10124EB
:1013500000E00024204638BD01460020B94A10684C
:1013600020F0F80040EAC10010607047B8490860FA
:10137000704702460020B34B586820F4741042EACC
:1013800001031843AF4B58607047B1490866704776
:1013900002460020AB4BD86AAE4B184042EA01032C
:1013A0001843A84BD862704701460020A54AD06A6E
:1013B00020F0F0000843D062704701460020A14AA7
:1013C000D06A20F470600843D0627047A0498866F4
:1013D0007047014600209B4AD06A20F470400843C1
:1013E000D06270479A490867704701460020954AC5
:1013F000506820F0030008435060704791484068EF
:1014000000F00C007047014600208E4A506820F022
:10141000F00008435060704701460020894A506838
:1014200020F4E06008435060704701460020854A80
:10143000506820F4605040EAC1005060704729B104
:10144000804A527A02437F4B5A7204E07D4A527AB4
:1014500082437C4B5A7270477D49D831086070478F
:1014600001460020774A506820F44040084350600D
:1014700070477949086070477749091D08607047CF
:101480000021704A203211706E4A82F82010012823
:1014900002D004280AD104E001216A4A20321170E6
:1014A00005E00521674A2032117000E000BF00BF4F
:1014B00070476A49086070476249096A0143614A96
:1014C0001162704765494439086070472DE9F04161
:1014D00000210022002500230026002400278C463E
:1014E000DFF86081D8F8048008F00C0121B10429EC
:1014F00007D0082959D109E0DFF86481C0F80080DD
:1015000058E0DFF86081C0F8008053E0DFF83481F4
:10151000D8F8048008F47012DFF82881D8F8048025
:1015200008F48035920C0D2A01D0921C00E00622AE
:1015300035B9DFF8348102FB08F8C0F8008033E0E9
:10154000DFF80081D8F82C8008F48036DFF8F480CA
:10155000D8F82C8008F00F0808F1010446B9DFF82C
:101560000481B8FBF4F808FB02F8C0F800801BE027
:10157000DFF8D080D8F82C80C8F3031808F10107F1
:10158000DFF8C080D8F82C80C8F3032808F1020CDB
:10159000DFF8D080B8FBF7F808FB0CF8B8FBF4F8DC
:1015A00008FB02F8C0F8008004E0DFF8B480C0F85F
:1015B000008000BF00BFDFF88C80D8F8048008F0FE
:1015C000F0010909DFF8A48018F80130D0F8008094
:1015D00028FA03F8C0F80480DFF86880D8F804809F
:1015E00008F4E061090ADFF8848018F80130D0F8C7
:1015F000048028FA03F8C0F80880DFF84880D8F89B
:10160000048008F46051C90ADFF8608018F80130DE
:10161000D0F8048028FA03F8C0F80C80DFF82480A2
:10162000D8F8048008F44041890BDFF8448018F8AA
:101630000130D0F80C80B8FBF3F8C0F81080BDE89A
:10164000F0810000001002400000FFF0FFFFF6FEF6
:1016500000004242F0FFFEFFC405424280044242C5
:1016600000127A0040787D0100093D001E00002034
:101670002E00002029B1354A52690243334B5A618A
:1016800004E0324A52698243304B5A61704729B1B3
:101690002E4A926902432D4B9A6104E02B4A9269CB
:1016A00082432A4B9A61704729B1284AD269024382
:1016B000264BDA6104E0254AD2698243234BDA6182
:1016C000704729B1214A926A0243204B9A6204E092
:1016D0001E4A926A82431D4B9A62704729B11B4A87
:1016E000D2680243194BDA6004E0184AD268824398
:1016F000164BDA60704729B1144A12690243134B42
:101700001A6104E0114A12698243104B1A61704752
:101710000F49086070470F49C86470470B49C8718A
:1017200070470A48406A40F0807008494862704734
:1017300001460020054A92680A400AB1012000E0F3
:101740000020704701498872704700000010024075
:10175000400442420000424231490143314A116093
:10176000704770B5002100230F22C47804B32D4CBC
:10177000246804F4E064C4F5E064210AC1F10403C0
:10178000CA40447804FA03F18478144021430901E3
:10179000254C0678A155047804F01F050124AC40BF
:1017A00005786D11AD0005F1E025C5F8004109E0AF
:1017B000047804F01F050124AC401C4D0678761116
:1017C00045F8264070BD1A4A0A400243154B1B1FBC
:1017D0001A60704739B1134A121D12680243114B47
:1017E0001B1D1A6006E00F4A121D126882430D4B42
:1017F0001B1D1A607047042808D14FF0E0210969C9
:1018000041F004014FF0E022116107E04FF0E021C8
:10181000096921F004014FF0E022116170470000D6
:101820000000FA050CED00E000E400E080E100E0DB
:1018300080FFFF1F01460020FE4A106800F03800BC
:10184000084310607047FB49096821F00801F94A14
:10185000116011460968014311607047F549096834
:1018600021F01001F34A116011460968014311602B
:101870007047F148EF494860F04848607047EE48CB
:10188000EC494860ED4848607047EA48006940F01C
:101890008000E84908617047E648006940F0800030
:1018A000E449086170470420E249C96801F0010178
:1018B00009B101200EE0DF49C96801F0040109B156
:1018C000022007E0DB49C96801F0100109B10320DB
:1018D00000E00420704700B502460423FFF7E3FF51
:1018E000034603E0FFF7DFFF0346521E012B01D141
:1018F000002AF7D102B90523184600BD30B50446C9
:1019000004254FF43020FFF7E6FF0546042D17D1DC
:10191000C848006940F00200C649086108464461B1
:10192000006940F0400008614FF43020FFF7D3FF1A
:101930000546C048006941F6FD710840BD4908618F
:10194000284630BD10B504244FF43020FFF7C3FF04
:101950000446042C16D1B748006940F00400B5498C
:1019600008610846006940F0400008614FF43020EB
:10197000FFF7B1FF0446AF48006941F6FB7108402C
:10198000AC490861204610BD00B502460423FFF7AC
:101990008AFF034603E0FFF786FF0346521E012B32
:1019A00001D1002AF7D102B90523184600BD10B5B0
:1019B00004244FF43020FFF7E7FF0446042C16D12F
:1019C0009C48006940F004009A4908610846006993
:1019D00040F0400008614FF43020FFF7D5FF044687
:1019E0009448006941F6FB7108409249086120461D
:1019F00010BD00208F49C96901F0020109B1012021
:101A000000E00020704730B5A5250424FFF7F1FF62
:101A100000B100254FF43020FFF75DFF0446042C91
:101A20003AD18548834988608448886008460069BF
:101A300040F0200008610846006940F0400008615D
:101A40004FF43020FFF747FF0446042C1BD17948A0
:101A5000006941F6DF71084076490861084600696F
:101A600040F01000086176480580E002FFF733FF80
:101A70000446052C10D06F48006941F6EF7108400C
:101A80006C49086108E0052C06D06A48006941F6F7
:101A9000EF71084067490861204630BD78B50646B9
:101AA0000C46042500200090E802FFF714FF0546CD
:101AB000042D24D15F48006940F001005D490861B0
:101AC0003480E802FFF707FF0546042D10D1B01C53
:101AD0000090200C00990880E802FFF7FCFE054604
:101AE0005448006941F6FE7108405249086106E019
:101AF0005048006941F6FE7108404E490861284689
:101B000078BD70B504460D460426F002FFF7E3FEEB
:101B10000646042E11D14748006940F001004549AE
:101B200008612580F002FFF7D6FE064641480069AD
:101B300041F6FE7108403F490861304670BD70B5FE
:101B400005460E460424E002FFF7C5FE0446042CB9
:101B500017D1394837498860384888600846006995
:101B600040F0100008612E80E002FFF7B4FE04464A
:101B7000052C06D02F48006941F6EF7108402D4929
:101B80000861204670BD2DE9F04304464FF6FF760C
:101B90003746B046B1460425E443E6B2C4F307270E
:101BA000C4F307484FEA1469E802FFF794FE0546BC
:101BB000042D49D120481F49886020488860084684
:101BC000006940F010000861FF2E06D01C48083064
:101BD0000680E802FFF77FFE0546042D08D1FF2F9F
:101BE00006D017480A300780E802FFF774FE054662
:101BF000042D0AD1B8F1FF0F07D011480C30A0F81E
:101C00000080E802FFF767FE0546042D0AD1B9F10E
:101C1000FF0F07D00A480E30A0F80090E802FFF747
:101C20005AFE0546052D0FD00248006941F6EF71B6
:101C3000084007E00020024023016745AB89EFCD53
:101C400000F8FF1F664908612846BDE8F08330B5FB
:101C5000054604244FF43020FFF73DFE0446042CD3
:101C600041D160485E4988605F48886008460069E5
:101C700040F0200008610846006940F0400008611B
:101C80004FF43020FFF727FE0446042C22D154489D
:101C9000006941F6DF710840514908610846006952
:101CA00040F0100008611DB100205049088002E09A
:101CB000A5204E4908804FF43020FFF70CFE044663
:101CC000052C10D04648006941F6EF7108404449A0
:101CD000086108E0052C06D04148006941F6DF7133
:101CE00008403F490861204630BDF0B505460E4624
:101CF000174604243B483A4988603B488860E00224
:101D0000FFF7E9FD0446042C19D13548006940F07D
:101D100010003349086147F0F80030432843334945
:101D2000891C0880E002FFF7D6FD0446052C06D08A
:101D30002B48006941F6EF710840294908612046A7
:101D4000F0BD2748C069800870472548006A704781
:101D500000202349096801F0200109B1012000E0B9
:101D60000020704729B11E4A126902431C4B1A61B8
:101D700004E01B4A12698243194B1A6170470146FD
:101D80000020012908D1164AD26902F001020AB1E5
:101D9000012008E0002006E0114AD2680A400AB19A
:101DA000012000E0002070470D49C8607047042002
:101DB0000B49C96801F0010109B101200EE0084991
:101DC000C96801F0040109B1022007E00449C968AB
:101DD00001F0100109B1032000E004207047000069
:101DE0000020024023016745AB89EFCD00F8FF1FBB
:101DF00010B50446FB48844209D101218803FFF74E
:101E00006DFC00214FF48040FFF768FC32E0F6489B
:101E1000844209D101214804FFF76DFC00214FF4F1
:101E20000030FFF768FC25E0F048844209D1012129
:101E30008804FFF760FC00214FF48020FFF75BFC73
:101E400018E0EB48844209D10121C804FFF753FC94
:101E500000214FF40020FFF74EFC0BE0E5488442E0
:101E600008D101210805FFF746FC00214FF480103E
:101E7000FFF741FC10BD2DE9F04786B005460E4640
:101E80000024A24600BFA1460027B08900B100BFD0
:101E90002F462C8A4CF6FF700440F08804432C82B5
:101EA000AC894EF6F3100440B0883189084371893B
:101EB00008430443AC81AC8A4FF6FF400440B0892C
:101EC0000443AC8201A8FFF701FBC648874202D158
:101ED000DDF810A001E0DDF80CA0A88900F40040B6
:101EE00040B10AEBCA0000EB0A1031684900B0FBB0
:101EF000F1F807E00AEBCA0000EB0A10316889002C
:101F0000B0FBF1F86420B8FBF0F004012009642173
:101F100001FB1089A88900F4004040B1322000EB99
:101F2000C900B0FBF1F000F00700044308E03220E4
:101F300000EB09106421B0FBF1F000F00F00044346
:101F40002C8106B0BDE8F0874FF4165101600021E6
:101F50008180C18001810C214181002181817047F4
:101F600010B502460020108A4FF2FF0318400B887C
:101F70004C8823438C882343CC8823431843108206
:101F800010BD0021018041808180C180704721B156
:101F9000828942F40052828104E082894DF6FF7307
:101FA0001A4082817047F0B50346002400260025C0
:101FB000002040F66A17B94200D100BF1846C1F3AD
:101FC000421401F01F06012707FA06F5012C01D182
:101FD0000C3004E0022C01D1103000E014301AB1B2
:101FE00007682F43076002E00768AF430760F0BD52
:101FF0001AB1838A0B43838202E0838A8B438382F4
:102000007047028A4FF6F0731A400282028A0A432E
:102010000282704782894FF2FF731A40828182895F
:102020000A438281704721B1828942F00202828193
:1020300004E082894FF6FD731A4082817047028A5C
:102040004FF6DF731A400282028A0A430282704707
:1020500021B1028A42F48042028204E0028A4BF6F5
:10206000FF731A4002827047C1F3080282807047F2
:1020700001468888C0F308007047818941F001015A
:1020800081817047028BD2B20283028B42EA012225
:1020900002837047028B02F47F420283028B0A4361
:1020A0000283704721B1828A42F02002828204E0DA
:1020B000828A4FF6DF731A408282704721B1828A8A
:1020C00042F01002828204E0828A4FF6EF731A40D7
:1020D0008282704721B1828A42F00802828204E043
:1020E000828A4FF6F7731A408282704721B1828943
:1020F00042F40042828103E08289C2F30E028281AF
:10210000704721B1828A42F40062828204E0828AAE
:102110004FF2FF731A4082827047828A4FF6FB7338
:102120001A408282828A0A438282704721B1828A5F
:1021300042F00202828204E0828A4FF6FD731A4066
:102140008282704702460020B1F5007F00D100BFB7
:1021500013880B400BB1012000E00020704701F410
:102160000072B2F5007F00D100BFCA430280704701
:1021700070B50246002400230025002040F66A16B0
:10218000B14200D100BFC1F3421501F01F03012687
:1021900006FA03F3012D02D19689334006E0022DA1
:1021A00002D1168A334001E0968A33400C12012690
:1021B00006FA04F41688344013B10CB1012000E093
:1021C000002070BD10B50022002340F66A14A14221
:1021D00000D100BF0A1201249440A3B2DC43048062
:1021E00010BD00000038014000440040004800409D
:1021F000004C0040005000400CB5002001900090C1
:102200009248006840F480309049086000BF8F48D1
:10221000006800F4003000900198401C0190009884
:1022200018B90198B0F5A06FF1D18848006800F4A2
:10223000003010B10120009001E0002000900098D3
:1022400001285CD18248006840F010008049086095
:102250000846006820F0030008600846006840F067
:10226000020008607948406878494860084640683C
:1022700048600846406840F4806048600846C06A8C
:10228000744908407149C8620846C06A72490843E7
:102290006E49C8620846006840F08060086000BF70
:1022A0006A48006800F000600028F9D0674840687C
:1022B00020F47C10654948600846406840F4E81006
:1022C00048600846006840F08070086000BF5F48C2
:1022D000006800F000700028F9D05C48406820F0E9
:1022E00003005A4948600846406840F002004860D0
:1022F00000BF5648406800F00C000828F9D10CBD1A
:1023000010B5FFF779FF10BD10B55048006840F0D8
:1023100001004E49086008464068504908404B4952
:102320004860084600684E49084048490860084629
:10233000006820F4802008600846406820F4FE0011
:1023400048600846006820F0A05008604FF47F0005
:1023500088600020C862FFF7D3FF4FF0006041495A
:10236000086010BDF0B500210020002300240022E9
:1023700000250026354F7F6807F00C0121B10429A4
:1023800008D008294BD10BE0374FDFF8E0C0CCF87C
:1023900000704AE0364FDFF8D4C0CCF8007044E05B
:1023A0002A4F7F6807F47010284F7F6807F4803346
:1023B000800C0D2801D0801C00E0062033B92D4F81
:1023C0004743DFF8A8C0CCF8007027E01F4FFF6A32
:1023D00007F480341D4FFF6A07F00F077A1C44B9D9
:1023E000234FB7FBF2F74743DFF880C0CCF800700B
:1023F00014E0164FFF6AC7F303177D1C134FFF6AE3
:10240000C7F30327BE1C1A4FB7FBF5F77743B7FB9B
:10241000F2F74743DFF854C0CCF8007005E0124FE4
:10242000DFF848C0CCF8007000BF00BF074F7F68DE
:10243000C7F30317DFF840C01CF807100B4F3F68C5
:10244000CF40DFF828C0CCF80070F0BD001002408B
:102450000020024000F0FEFF440601000000FFF0F3
:10246000FFFFF6FE08ED00E000127A0034000020C5
:1024700040787D0100093D0038000020D2B201E023
:1024800000F8012B491EFBD270470022F6E710B579
:1024900013460A4604461946FFF7F0FF204610BDD2
:1024A0002DE9F05F0546002092469B468846064689
:1024B000814640241BE0284641464746224600F01C
:1024C00042F853465A46C01A914110D31146184655
:1024D000224600F029F82D1A67EB01084F462246E4
:1024E0000120002100F020F817EB00094E41201ECA
:1024F000A4F10104DFDC484631462A464346BDE8E4
:10250000F09F0000064C074D06E0E06840F0010334
:1025100094E8070098471034AC42F6D3FDF71CFE50
:102520006828000888280008202A04DB203A00FADE
:1025300002F1002070479140C2F1200320FA03F31A
:10254000194390407047202A04DB203A21FA02F018
:102550000021704721FA02F3D040C2F120029140DD
:1025600008431946704700000FB4054B10B503A986
:10257000044A029800F018F810BC5DF814FB000043
:10258000410400084800002002E008C8121F08C1EA
:10259000002AFAD170477047002001E001C1121FE4
:1025A000002AFBD1704700002DE9FF4F8DB09B46FC
:1025B0000F460446002606E025280BD05A460F9900
:1025C0009047641C761C20780028F5D111B0304665
:1025D000BDE8F08F0025A8460122984900E0054398
:1025E00014F8013F203B02FA03F00842F7D12078AB
:1025F0002E2817D114F8010F45F004052A280ED013
:102600006FF02F022078A0F1300109290AD808EBD9
:10261000880102EB410100EB0108641CF2E757F866
:10262000048B641C20786C280DD004DC4C2812D05C
:102630006A2811D104E074280DD07A280CD10AE060
:1026400045F4001507E0617845F48015814202D118
:10265000641C05F58015641C2278692A45D008DCC5
:10266000002AB3D0582A69D0632A10D0642A08D12E
:102670003BE0702A67D0732A13D0752A5CD0782A81
:102680005CD010465A460F999047761CD3E017F855
:10269000040B8DF8000000208DF80100E9460120B0
:1026A00003E057F8049B4FF0FF3069074FF0000537
:1026B00001D40AE06D1C45450DDA8542FADB19F8B4
:1026C00005100029F6D106E06D1C8542FCDB19F8E7
:1026D00005100029F8D12E4404E019F8010B5A46E0
:1026E0000F9990476D1EF8D2A5E00A200021CDE990
:1026F0000801C5F3025002280DD001CFC117031EF7
:1027000071F100030DDA4FF0000CD0EB0C006CEB14
:1027100001012D2308E0FF1D27F00707F7E802015C
:10272000EDE72B0504D52B238DF8283001233BE062
:10273000EB0739D02023F7E70A2000E01020002122
:10274000CDE9080107E01020002145F00405CDE99E
:1027500008014FF00808C5F3025002280FD001CF3E
:1027600000214FF0000A2B071FD5702A0DD0DDE99C
:1027700008C38CF0100C5CEA030C0CD015E0FF1DB4
:1027800027F00707F7E80201EBE740228DF8282041
:102790004FF0010A0BE050EA010306D030238DF818
:1027A00028308DF8292002239A46582A04D024A2E2
:1027B0000DF120090B9209E026A2F9E7DDE90823D3
:1027C000FFF76EFE0B9B9B5C09F8013D50EA01028E
:1027D000F4D1ADEB090020300890680701D44FF028
:1027E00001080899884502DDA8EB010000E00020FF
:1027F0008046002506E00AA85A46405D0F9990479A
:102800006D1C761C5545F6DB04E030205A460F99C6
:102810009047761CB8F10001A8F10108F5DC05E04D
:1028200019F8010B5A460F999047761C0899481ED3
:1028300008900029F4DC641CC5E6000009280100AA
:102840003031323334353637383961626364656626
:1028500000000000303132333435363738394142E8
:10286000434445460000000088280008000000207E
:102870004C00000088250008D42800084C000020E7
:10288000B4AF00009825000800000014000000000C
:102890000000000000000000000000000000000038
:1028A000000000000000000000000102030401021B
:1028B00003040607080902040608000000A24A04EF
:1028C00000000000000000000102030406070809E0
:0428D0000000000004
:04000005080001519D
:00000001FF
