:020000040800F2
:1000000000300020010100085B1D0008CF1B000824
:10001000591D00088F03000859280008000000003F
:10002000000000000000000000000000A7220008FF
:100030001D040008000000006F2000083D23000898
:100040001B0100081B0100081B0100081B01000820
:100050001B0100081B0100081B0100081B01000810
:100060001B0100081B0100081B0100081B01000800
:100070001B0100081B0100081B0100081B010008F0
:100080001B0100081B0100081B0100081B010008E0
:100090001B0100081B0100081B0100081B010008D0
:1000A0001B0100081B0100081B0100081B010008C0
:1000B0001B010008FD2300081B0100081B010008AC
:1000C0001B0100081B0100081B0100081B010008A0
:1000D0001B010008E92700081B0100081B0100089C
:1000E0001B0100081B0100081B010008DFF80CD0F1
:1000F00000F05AF800480047792E00080030002030
:100100000648804706480047FEE7FEE7FEE7FEE7B1
:10011000FEE7FEE7FEE7FEE7FEE7FEE7B5230008A1
:10012000ED000008202A04DB203A21FA02F0002129
:10013000704721FA02F3D040C2F1200291400843F7
:10014000194670472DE9F05F0546002092469B4610
:1001500088460646814640241BE0284641464746DD
:100160002246FFF7DFFF53465A46C01A914110D38B
:1001700011461846224600F029F82D1A67EB0108AF
:100180004F4622460120002100F020F817EB00091D
:100190004E41201EA4F10104DFDC484631462A46C8
:1001A0004346BDE8F09F0000064C074D06E0E068BE
:1001B00040F0010394E8070098471034AC42F6D3AE
:1001C000FFF798FFCC2E0008EC2E0008202A04DB55
:1001D000203A00FA02F1002070479140C2F120035A
:1001E00020FA03F319439040704710B5002304E050
:1001F00010C841F823405B1C9BB29342F8D310BD5A
:10020000006870472DE9F05FA0F1006415468A464A
:100210008346B4F5803F56D200F038FAA70AC4F3FB
:100220008706C6F58074A54200D82C46DFF89C905E
:100230004FF0006000EB872080464FF48072234926
:10024000FFF7D3FF002005E0321859F8221019B942
:10025000401C80B2A042F7D3A0422CD2404600F00E
:10026000DFF84FF4FA7000F03DF90020494606E04F
:100270005AF820208319401C41F8232080B2A04264
:10028000F6D3124940464FF4807200BF00F02AF8BE
:100290004FF4FA7000F026F9A54210D00AEB840A58
:1002A0000BEB840B2D1B00264FF480747F1CA542A2
:1002B000BED8ACB2BCE7224651465846E6E7BDE898
:1002C000F05F00F099B9BDE8F09F00002401002024
:1002D00008B5026801EB0241009101226946FFF76F
:1002E00091FF08BD2DE9F04116460F460546002452
:1002F0000AE000BF57F8242000232946022000F01E
:1003000085F9641CA4B22D1DB442F3D3BDE8F0817D
:10031000002413A002F0A2FA02F0F2FC00F030F880
:1003200001F09EFE144801F0ADF9144E4FF4FA7737
:100330004FF40055012000F0FFF801F0FBFD18B16B
:1003400000F030F801F094FE2046641CA4B2B842DC
:10035000F0D300242946304600F088FAEAE700008E
:100360004F544120626F6F746C6F616465722056E8
:10037000312E332E310D0A00E8000020001001401C
:1003800010B501F091FFBDE8104001F0C3BFFEE7DA
:100390000249888001460248FFF79ABF1C000020EE
:1003A000003800082DE9F04100241C27134E144D9D
:1003B0001EE000BFB0F5E05F06D34FF4807126F871
:1003C0001410A0F5E0500AE0B0FBF7F107FB1101B3
:1003D000B0FBF7F001B1401C26F814000020688043
:1003E00036F81420611C07A002F038FA641CE4B24D
:1003F00068880028DED1BDE8F081000044050020B7
:100400001C000020B5DA2564B4CEBDD3CAD5B4CE65
:10041000CAFDCEAA25640D0A000000007047FEE761
:1004200000B585B000210290012004910091039055
:1004300004A9684600F08CF805B000BD064900200C
:10044000C8610648016941F004010161016941F098
:100450004001016170470000300000200020024090
:10046000064A0021D16106490A6942F002020A6186
:100470004861086940F04000086170473000002082
:1004800000200240044B0022DA61044A136943F061
:1004900001031361018070473000002000200240FA
:1004A0000E49C868C2060E4803D5C26942F002026E
:1004B000C261CA68520703D5C26942F00102C26133
:1004C000CA69D20707D0C26942F00402C261C86992
:1004D00020F00100C8611420C8607047002002406D
:1004E0003000002070B5054600F0CAF90646114CF0
:1004F00009E0681C07D025B100F0C2F9801BA842B2
:1005000001D9032070BDE068C007F2D1E068800621
:1005100001D52020E060E068C00605D4E069C0078E
:1005200002D1E068400703D5FFF7BAFF012070BD94
:10053000002070BD0020024031B500F0A1F9044652
:1005400000F09EF90099001B8842F9D338BD0000E5
:100550002DE9F047054626480F460126017E012970
:100560000FD00121814601762868DFF888804CF29F
:100570005034022808D0A2462046FFF7B3FFA8B1A6
:1005800031E00220BDE8F0872046FFF7ABFF08BB53
:100590000120FFF753FF2046FFF7A4FFD8F8101003
:1005A000064621F00401C8F810101CE04FF0FF309F
:1005B0003860AC6811E02046FFF752FF5046FFF765
:1005C00091FFD8F81010060021F00201C8F81010B1
:1005D00001D03C6007E004F58064D5E9020100EB3E
:1005E0008120A042E7D8002189F818103046C9E7D9
:1005F00030000020002002400348016941F08001E2
:100600000161002070470000002002402DE9F05FEA
:1006100007461C4888460024017E15461E460129CF
:1006200009D00121814601764CF2503A5046FFF73D
:1006300059FF18B122E00220BDE8F09F012F02D03F
:10064000022F00D00427D346DFF83CA02201284621
:100650003146FFF767FD81B208EB4400FFF712FF58
:100660005846FFF73FFFDAF8102022F00102CAF8DF
:10067000102018B9641CE4B2BC42E7D3002289F808
:100680001820D9E730000020002002400548016909
:10069000090605D5044941600449416000207047BE
:1006A000012070470020024023016745AB89EFCD50
:1006B0002DE9F84FDFF890A100220AF1040B14464F
:1006C00001274FF00F090BF1040E00BF0B6807FA6A
:1006D00004F52B40AB4274D1DFF870C14E68A6EB35
:1006E0000C0866452BD00DDC032E34D005DC36B368
:1006F000012E19D0022E2FD11BE0112E16D0122E52
:100700002AD119E0B8F5881F19D006DCB8F5803F6A
:1007100015D0B8F5801F1FD111E0B8F5001F0ED01D
:10072000B8F5041F18D10AE0CA6815E0CA68121D9E
:1007300012E0CA6808320FE0CA680C320CE08A681E
:100740002AB1012A4FF0080203D0456104E00422D7
:1007500002E0056100E00022FF2B01D8064601E01F
:1007600000F104064FEA840501D9A5F12005D6F869
:1007700000C009FA05F82CEA080C02FA05F54CEA63
:10078000050CC6F800C04D68ED0057D5304DAE6978
:1007900046F00106AE61AD6924F0030605F00105DF
:1007A00000952C4D06EB050CDCF80850A6074FEA27
:1007B000167809FA08F6B543274EB04202D1002652
:1007C00010E03BE0254EB04201D101260AE0244E64
:1007D000B04201D1022605E0224EB04201D10326EB
:1007E00000E0042606FA08F62E43CCF808604D68AF
:1007F000DAF80060ED03554601D51E4300E09E4344
:100800002E604D68DBF80060AD035D4601D51E43E8
:1008100000E09E432E604D68DEF80060ED027546F4
:1008200001D51E4300E09E432E604D68AD020E4D83
:100830002E6801D51E4300E09E432E60641C102CE0
:10084000FFF444AFBDE8F88F000401400000111030
:10085000001002400000014000080140000C01406F
:1008600000100140001401400C040140C2684A40DD
:10087000C26070470AB1016170470904FBE70000DC
:100880000148006870470000040000200248016829
:10089000491C01607047000004000020074810B5A3
:1008A000016841F010010160032000F087F800208A
:1008B00000F006F800F016F8002010BD00200240FD
:1008C00010B5044600F050F94FF47A71B0FBF1F026
:1008D00000F05CFE00222146501E00F04FF8002080
:1008E00010BD00001D4808B5816941F0010181611A
:1008F000806900F001000090042000F05FF8002201
:1009000011466FF00B0000F039F8002211466FF02D
:100910000A0000F033F8002211466FF0090000F0E1
:100920002DF800221146501F00F028F80022114631
:10093000101F00F023F800221146901E00F01EF850
:1009400000221146501E00F019F80548416821F0B8
:10095000E06141F00071416008BD000000100240FC
:100960000000014000F01F02012191404009800079
:1009700000F1E020C0F8001170470000F0B40E4B09
:100980001B680C46C3F30223C3F10705042D00D9ED
:100990000425191D072901D2002300E0DB1E0126D2
:1009A00006FA05F1491E214099409E40761E1640E8
:1009B0003143F0BC01F044BB0CED00E0064900F00F
:1009C000070208684FF6FF03184040EA0220034A76
:1009D00010430860704700000CED00E00000FA05CD
:1009E0002DE9F047DFF8708105460E46D8F8000083
:1009F00000F00700B0420CD2D8F8001021F0070137
:100A00003143C8F80010D8F8000000F00700B042E9
:100A100077D12878514C800705D56068A96820F007
:100A2000F000084360602878C00759D06968012049
:100A300001290DD0022929D05FF0020393FAA3F215
:100A4000B2FA82F242F02002520904D0226803E096
:100A50004FF40033F2E7626A93FAA3F3B3FA83F335
:100A600003F01F03984002424BD0606820F003005F
:100A700008436060FFF704FF6968074641F2883069
:100A800001290DD00229814617D025E04FF00073CF
:100A9000D4E700BFFFF7F4FEC11B494501D918E0B8
:100AA00081466068C0F381000128F3D118E000BFDF
:100AB000FFF7E6FEC11B49450BD86068C0F3810013
:100AC0000228F5D10CE000BFFFF7DAFEC11B494553
:100AD00002D90320BDE8F087606810F00C0FF3D155
:100AE000D8F80010404601F00701B1420BD9016867
:100AF00021F0070131430160006800F00700B042B7
:100B000001D00120E6E72878400705D56068E9684C
:100B100020F4E060084360602878000706D560682C
:100B2000296920F4605040EAC100606000F052F88A
:100B30006168F02292FAA2F201F0F001B2FA82F2B8
:100B4000D140074A515CC840064908600020FFF7C1
:100B5000B7FE0020BEE70000002002400010024067
:100B6000B42E000800000020014800687047000013
:100B70000000002008480949006849684FF4E06215
:100B800092FAA2F201F4E061B2FA82F2D140044A90
:100B9000515CC84070470000000000200010024077
:100BA000C42E000808480949006849684FF460529B
:100BB00092FAA2F201F46051B2FA82F2D140044AF0
:100BC000515CC84070470000000000200010024047
:100BD000C42E000810B519A385B00FCB8DE80F0007
:100BE0001AA01B4B006804905A681A4802F00C01C6
:100BF00004291DD008291BD14FF4701494FAA4F4D1
:100C000002F47011B4FA84F4E140D2031DF801102B
:100C100010D55A684FF4003393FAA3F302F400326C
:100C2000B3FA83F3DA4004AB9A5CB0FBF2F04843CA
:100C300005B010BD08484843FAE700000203040568
:100C4000060708090A0B0C0D0E0F10100102000018
:100C50000010024000127A0000093D002DE9F84F13
:100C600004460078F74DC0074FF0010625D06868AC
:100C70007704C0F38100012807D06868C0F38100C1
:100C800002281BD16868C00318D597FAA7F0B0FAFC
:100C900080F040F02000400901D0286800E0686A38
:100CA00097FAA7F1B1FA81F101F01F0106FA01F1FB
:100CB00008425ED0606800287CD05AE06068B0F5D9
:100CC000803F0BD010B1B0F5A02F11D0286820F4D0
:100CD00080302860286820F4802002E0286840F4F2
:100CE00080302860606828B3FFF7CAFD80460BE0BB
:100CF000286840F480202860F0E700BFFFF7C0FDBF
:100D0000A0EB0800642871D897FAA7F0B0FA80F039
:100D100040F02000400901D0286800E0686A97FA96
:100D2000A7F1B1FA81F101F01F0106FA01F10842C1
:100D3000E4D01EE0FFF7A4FD804605E0FFF7A0FD2C
:100D4000A0EB08006428DED897FAA7F0B0FA80F08C
:100D500040F02000400901D0286800E0686A97FA56
:100D6000A7F1B1FA81F101F01F0106FA01F1084281
:100D7000E4D12078DFF8D08280074FF000094FF0EF
:100D800002075BD568684FF0F80B10F00C0F07D026
:100D90006868C0F3810002281CD16868C00319D4B8
:100DA00097FAA7F0B0FA80F040F02000400902D096
:100DB000286801E08BE0686A97FAA7F1B1FA81F13F
:100DC00001F01F0106FA01F108422CD02069012828
:100DD0007DD128E0206990B396FAA6F0B0FA80F0B1
:100DE00048F82060FFF74CFD824607E011E100BFA4
:100DF000FFF746FDA0EB0A00022884D897FAA7F077
:100E0000B0FA80F040F02000400901D0286800E0EE
:100E1000686A97FAA7F1B1FA81F101F01F0106FAA9
:100E200001F10842E4D028689BFAABF26169B2FA9A
:100E300082F220F0F80091400843286025E0FFE7A7
:100E400096FAA6F1B1FA81F148F82190FFF718FD62
:100E5000824605E0FFF714FDA0EB0A000228CCD87B
:100E600097FAA7F0B0FA80F040F02000400901D0D6
:100E7000286800E0686A97FAA7F1B1FA81F101F0F9
:100E80001F0106FA01F10842E4D1207800076ED56F
:100E9000A069B8B396FAA6F0B0FA80F008EB80002B
:100EA000C0F88064FFF7ECFC824605E0FFF7E8FC41
:100EB000A0EB0A000228A0D897FAA7F0B0FA80F0B9
:100EC00040F06000B6EB501F02D128680CE062E1F0
:100ED00097FAA7F0B0FA80F040F06000B7EB501F2F
:100EE00001D1286A00E0686A97FAA7F1B1FA81F1A6
:100EF00001F01F0106FA01F21042D7D00120FFF7DE
:100F00001BFB34E0FFE796FAA6F1B1FA81F108EB9A
:100F10008101C1F88094FFF7B3FC824606E000BF70
:100F2000FFF7AEFCA0EB0A00022872D897FAA7F0F0
:100F3000B0FA80F040F06000B6EB501F01D1286895
:100F40000BE097FAA7F0B0FA80F040F06000B7EB42
:100F5000501F01D1286A00E0686A97FAA7F1B1FA38
:100F600081F101F01F0106FA01F21042D8D1207878
:100F7000400765D5E86940F08050E861E869DFF82E
:100F8000CCB000F080500090DBF8001041F480718C
:100F9000CBF80010FFF774FC824605E0FFF770FC09
:100FA000A0EB0A00642834D8DBF80000C005F5D5B2
:100FB000E06801280AD008B1052813D0286A20F07B
:100FC00001002862286A20F0040002E0286A40F04C
:100FD00001002862E06841F2883B90B3FFF750FCC3
:100FE00082460BE0286A40F004002862EEE700BF6A
:100FF000FFF746FCA0EB0A0159450AD897FAA7F07B
:10100000B0FA80F040F04000B6EB501F02D12868E3
:101010000CE0A3E097FAA7F0B0FA80F040F04000AF
:10102000B7EB501F01D1286A00E0686A97FAA7F170
:10103000B1FA81F101F01F0206FA02F10842D7D09D
:1010400031E005E000100240000042420070004024
:10105000FFF716FC824605E0FFF712FCA0EB0A0141
:1010600059457BD897FAA7F0B0FA80F040F04000DD
:10107000B6EB501F01D128680BE097FAA7F0B0FA41
:1010800080F040F04000B7EB501F01D1286A00E02B
:10109000686A97FAA7F1B1FA81F101F01F0206FA26
:1010A00002F10842D8D1E06980B36968C1F38101D7
:1010B000022970D04FF080714F000228484609D0B5
:1010C00091FAA1F1B1FA81F148F82100FFF7D8FBBC
:1010D000044669E08A4691FAA1F1B1FA81F1C1466C
:1010E00048F82100FFF7CCFB804605E0FFF7C8FB7E
:1010F000A0EB0800022854D897FAA7F0B0FA80F0C5
:1011000040F02000400902D0286801E061E0686AF0
:1011100097FAA7F1B1FA81F101F01F0106FA01F186
:101120000842E3D1206AB0F5803F05D16868A16824
:1011300020F4003008436860D4E908010843696876
:1011400021F47411084368609AFAAAF0B0FA80F0AA
:1011500049F82060FFF794FB044606E021E000BF59
:10116000FFF78EFB001B02281BD897FAA7F0B0FAF6
:1011700080F040F02000400901D0286800E0686A53
:1011800097FAA7F1B1FA81F101F01F0106FA01F116
:101190000842E5D01DE01EE0FFF772FB001B0228AD
:1011A00002D90320BDE8F88F97FAA7F0B0FA80F0D3
:1011B00040F02000400901D0286800E0686A97FAF2
:1011C000A7F1B1FA81F101F01F0106FA01F108421D
:1011D000E2D10020E6E70120E4E7000010B50400BA
:1011E00003D094F8510010B104E0012010BD204656
:1011F00000F038F8022084F851002068016821F0DE
:1012000040010160D4E901010843D4E9031211430C
:10121000084361690843218B01F400710843E169C7
:101220000843216A0843A16A084321680860A0694D
:10123000042101EA1040616A08432168486021687E
:10124000E06A08612068C16921F40061C161044954
:10125000002008706065012084F85100002010BD56
:101260000800002010B50068124986B088421ED1DF
:101270001148C16941F48041C161C0690F4C00F45B
:10128000804004904FF42040009002200190032001
:10129000039069462046FFF70BFA00214FF4804087
:1012A000CDE90001029169462046FFF701FA06B038
:1012B00010BD00000038004000100240000C01404A
:1012C0002DE9F8430025DDF820800446ADF80050F4
:1012D00090F85100012803D094F8510022287DD1C4
:1012E00069B162B15BB194F85000012876D0012653
:1012F00084F8506094F85100012803D005E00120E3
:10130000BDE8F883322084F851006565A263A387A5
:10131000E3872163A386E386A564E564A06A4FF4AE
:101320000057B84209D12068016821F400510160DA
:101330002068016841F40051016020680168490695
:1013400003D4016841F040010160E0684FF482710C
:10135000B0F5006F606807D0002867D088426ED172
:10136000E08E012862D06AE020B188420CD1E08E84
:10137000012809D1206B21680088C860206B801C7F
:101380002063E08E401EE086E08E80B9A06AB842FD
:1013900044D12068016841F4805101603EE020683A
:1013A000C068A16B0880A06B801CA0639EE04346D0
:1013B00000220221204600F027FF002874D1206B74
:1013C00021680088C860206B801C2063E08E401E6E
:1013D0000004000CE08609D1A06A00E0C7E0B84232
:1013E00004D12068016841F4805101604346002225
:1013F0000121204600F008FF00286FD12068C06856
:10140000A16B0880A06B801CA063E08F401EE0876A
:10141000E08E0028CBD1606800286AD143460022C4
:101420000121204600F0F0FEF0BBB8E7206B411C24
:10143000216321680078C860E08E401EE086E08E5F
:1014400098B9A06AB84204D12068016841F480517B
:101450000160434600220121204600F0D5FE18BB62
:101460002068C068A16B087040E04346002202215A
:10147000204600F0C9FEB8B9206B411C21632168E9
:101480000078C860E08E401E0004000CE08607D1A2
:10149000A06AB84204D12068016841F4805101601B
:1014A00000224346012100E018E0204600F0ACFE97
:1014B000A0B92068C168A06B421CA2630170E08FD4
:1014C000401EE087E08E0028CFD1606888B943468F
:1014D00000220121204600F097FE08B103200FE70B
:1014E0002068C168A06B421CA2630170E08F401E9F
:1014F000E087A06AB84210D143460022012120466D
:1015000000F082FE18B1606D40F002000FE020682C
:10151000C068ADF80000BDF80000434601228021FC
:10152000204600F071FE20B1606D40F01000606553
:10153000D4E784F85160A06AB84214D12068816869
:10154000C943C9060FD4616D41F0020161650168AC
:1015500021F4005101602068016841F400510160EC
:1015600084F85050CBE684F850500020C8E60220A2
:10157000C6E64FF0E0210428086903D020F00400FB
:101580000861704740F00400FAE7704710B5401E4C
:10159000B0F1807F01D3012010BD4FF0E0246061E5
:1015A0000F21601700F04CFD0020A0610720206192
:1015B000002010BD10B5FFF7E8FF10BD7047704761
:1015C00030B590F83820012A20D0012280F8382048
:1015D000022380F8393003685C6824F070045C6092
:1015E00003685C680D682C435C6003689C6824F0A9
:1015F00080049C6003689C6849680C439C6080F888
:101600003920002180F83810084630BD022030BD56
:1016100010B5040003D094F8390010B107E00120A0
:1016200010BD002084F83800204600F00DF802209C
:1016300084F83900211D206800F0E6FE012084F8BE
:101640003900002010BD000008B500680B49884231
:1016500012D10B48C16941F00201C161C069012288
:1016600000F00200009002211D20FFF787F9BDE87D
:1016700008401D20FFF776B908BD000000040040B7
:10168000001002400168CA6842F00102CA600068A6
:10169000016841F001010160002070470168CA68DB
:1016A00022F00102CA600068016A41F2111211427F
:1016B00007D1016A9210114203D1016821F00101A2
:1016C00001600020704770B5044690F8380001288A
:1016D00017D0012584F83850022084F8390020689A
:1016E000826822F0770222F47F42826008685028E4
:1016F00037D00DDC202859D005DC88B3102841D123
:1017000051E0022070BD302853D040283AD13FE04C
:1017100060282ED070280BD0B0F5805F03D0B0F5D4
:10172000005F2FD110E02068816821F0070115E0EB
:10173000CB68D1E90121206800F098FE2168886813
:1017400040F0770088601DE0CB68D1E90121206876
:1017500000F08CFE2068816841F48041816011E0D6
:101760001EE0CA684968206800F092FE5021206897
:1017700006E0CA684968206800F09BFE6021206886
:1017800000F07EFE84F83950002084F8380070BDE7
:10179000CA684968206800F07BFE40212068EFE7B6
:1017A00000212068ECE710212068E9E7202120686B
:1017B000E6E730212068E3E7704770B5044600682B
:1017C00001694FF00005C943890715D4C168C943B1
:1017D000890711D4E91E0161012020762068806903
:1017E0008007204602D0FFF7E7FF04E000F098F8FA
:1017F000204600F096F8257620680169C94349071C
:1018000017D4C168C943490713D46FF004010161BB
:10181000022020762068806910F4407F204602D0A4
:10182000FFF7CAFF04E000F07BF8204600F079F8EB
:10183000257620680169C943090716D4C168C943E0
:10184000090712D46FF00801016104202076206896
:10185000C0698007204602D0FFF7AEFF04E000F029
:101860005FF8204600F05DF8257620680169C943DD
:10187000C90617D4C168C943C90613D46FF0100153
:101880000161082020762068C06910F4407F20465E
:1018900002D0FFF791FF04E000F042F8204600F08C
:1018A00040F8257620680169C943C90708D1C16895
:1018B000C943C90704D1891E0161204600F032F8EE
:1018C00020680169C943090609D4C168C9430906EA
:1018D00005D46FF0800101612046FFF76FFE20689C
:1018E0000169C943490609D4C168C943490605D4F9
:1018F0006FF040010161204600F02EF82068016978
:10190000C94389060BD4C168C943890607D46FF05F
:10191000200101612046BDE87040FFF750BE70BD58
:101920007047704710B5094C2078401C207008A003
:1019300000F094FF2078052806D30648FFF7AEFE96
:1019400001F0DEF90020207010BD00000900002029
:101950000D0A0000E80000207047704738B50446C3
:1019600000680168C26811F0010F02F4807204D0AF
:101970001AB1E16B41F00101E1630168C1F340027A
:10198000416901F0010122B119B1E26B42F0040298
:10199000E2630268C2F3800222B119B1E26B42F045
:1019A0000202E2630268C2F3C00222B119B1E16B24
:1019B00041F00801E1630168C068C1F3401100F023
:1019C000200019B110B1204600F086FD20680168A2
:1019D000C068C1F3C01100F0800019B110B12046F9
:1019E00000F086FE21680868CA68C0F3801002F023
:1019F0004002012570B16AB1CA68204622F0400257
:101A0000CA6094F83910322911D080F8395000BFDB
:101A100000F0DCF8E06B002808D02068016840681E
:101A2000009084F839502046FFF797FF38BD2221F7
:101A300080F83910ECE770B5040004D094F8390050
:101A4000002510B106E0012070BD84F83850204612
:101A500000F020F8022084F839002068C16821F4E1
:101A60000051C160204600F08BFD2068016921F41F
:101A7000904101612068416921F02A01416120689B
:101A8000C16841F40051C160E563012084F8390068
:101A9000002070BD10B50068154986B0884225D178
:101AA0001448816941F4804181618069124C00F4DD
:101AB000804004904FF400700090022001900320B9
:101AC000039069462046FEF7F3FD00212015CDE97D
:101AD0000001029169462046FEF7EAFD0122114607
:101AE0002520FEF74BFF2520FEF73CFF06B010BD7A
:101AF000003801400010024000080140704700001B
:101B00002DE9F047044690F8390099460D46012822
:101B100001D0222858D12DB322B394F838000128DF
:101B200052D0012684F838600027E76394F8390022
:101B300022281AD05FF0120084F83900A284E284CF
:101B40004FF48058E08C4B46401EE084A0684FF074
:101B5000000240454FF08001204613D100F0FBFD0C
:101B600008BB04E00120BDE8F0873220E4E72888C4
:101B70002168C0F308004860206908B16D1C08E0C6
:101B8000AD1C06E000F0E7FD68B9216815F8010B0F
:101B90004860E08C0028D5D14B46002240212046E9
:101BA00000F0D9FD08B10320DDE794F839003228B0
:101BB00006D084F8396000BF84F838700020D2E77E
:101BC000222084F83900F7E70220CCE77047FEE7CF
:101BD000F0B5264885B0816941F0100181618169C5
:101BE00001F010010491816941F020018161816956
:101BF00001F020010491816941F00801816181694E
:101C000001F008010491816941F00401816180695A
:101C1000174E00F004004FF40054049000222146B7
:101C20003046FEF727FE134F012230213846FEF7DB
:101C300021FE009401240225694630460395019453
:101C4000FEF736FD200300900020019002906946C7
:101C50000948FEF72DFD3020CDE9000469460395C3
:101C60003846FEF725FD05B0F0BD0000001002402B
:101C700000100140000C014000080140104810B560
:101C80000E4901604FF48271416000218160C160A2
:101C90004FF400720161C0E905120822C0E9072172
:101CA000416281620A21C162FFF798FA002803D0DD
:101CB000BDE81040FEF7B3BB10BD00000038004087
:101CC0005000002010B5154886B0134901604AF64F
:101CD000BF010024C0E901144CF24F31C0E90314E4
:101CE000FFF796FC08B1FEF79AFB4FF48050009086
:101CF00069460A48FFF7E7FC08B1FEF790FB049439
:101D000004A906480594FFF75BFC002801D0FEF704
:101D100086FB06B010BD000000040040E800002073
:101D20000C4810B50A4901604FF4E13141600021CF
:101D300081600C22C160C0E904128161C161FFF7BA
:101D40007AFE002803D0BDE81040FEF768BB10BD46
:101D500000380140A8000020FEE770471CB50FA125
:101D60000522D1E90001CDE900016946302000F0EB
:101D700029F905226946102000F082F80020694602
:101D80000A5CA52A03D1401CC0B20528F8D3052857
:101D900001D001201CBD00201CBD0000A5A5A5A5EB
:101DA000A500000010B5012211030948FEF762FDED
:101DB00005E008A000F052FDC820FEF7BDFBFFF7CC
:101DC000CDFF0028F5D1BDE8104006A000F046BDCB
:101DD000000801404E524632344C30312045727278
:101DE0006F7200004E524632344C303120496E69D9
:101DF00074204F4B0D0A000010B5184C0022102122
:101E00002046FEF737FD052215492A2000F0DAF8B2
:101E10000121212000F0FAF80121222000F0F6F83B
:101E20002821252000F0F2F82021312000F0EEF8E2
:101E30000F21262000F0EAF80F21202000F0E6F81C
:101E4000012210212046FEF715FD0120FEF774FB4C
:101E5000BDE8104003A000F001BD0000000C0140EF
:101E6000120000204E524632344C3031204D6F6407
:101E7000653A20526563656976650D0A00000000C9
:101E80002DE9F041DFF83C8015460F46044600225C
:101E900020214046FEF7EEFC204600F0A5F906465C
:101EA000002405E0FF2000F09FF93855641CE4B2DF
:101EB000AC42F7D3012220214046FEF7DBFC30463E
:101EC000BDE8F081000C014070B50A4D04460022C7
:101ED00020212846FEF7CEFC204600F085F9FF20A1
:101EE00000F082F90446012220212846FEF7C2FCB8
:101EF000204670BD000C014070B5C0EBC0004FF62D
:101F0000FF7101EA80050024084800F041F808B19B
:101F1000012070BD054906480A192B19641CD278A6
:101F2000E4B2C2541C2CF7D3002070BD240500205D
:101F30000010002010B50E4800F02AF808B100206B
:101F400010BD0B480178407801EB002081B20948B0
:101F5000CA060180084803D0012202EB511200E0BA
:101F60004A09028005A000F079FC012010BD0000A4
:101F7000240500201E00002010000020B9CCBCFE6B
:101F8000B3A4B6C83A256442797465730D0A00009B
:101F900070B505460720FFF797FF04460146272046
:101FA00000F034F860060AD5202229466120FFF7A8
:101FB00067FFFF21E22000F029F8002070BD01201A
:101FC00070BD00002DE9F041DFF83C8016460D465B
:101FD0000446002220214046FEF74CFC204600F03B
:101FE00003F90746002405E015F8010B00F0FCF8A2
:101FF000641CE4B2B442F7D3012220214046FEF72C
:1020000039FC3846BDE8F081000C014070B50B4D3D
:102010000E460446002220212846FEF72BFC2046CF
:1020200000F0E2F80446304600F0DEF801222021FC
:102030002846FEF71FFC204670BD0000000C014042
:102040000907090E002806DA00F00F0000F1E02071
:1020500080F8141D704700F1E02080F800147047EC
:1020600010B5FFF79FFEBDE81040FFF7C5BE7047F3
:102070002DE9F05F384D0024A3462C80DFF8DC907A
:10208000374E5DE0002710E00120FEF755FA7F1C77
:10209000BFB2574509D333A000F0E0FB4FF6FF7005
:1020A000FEF776F90020BDE8F09F2888FFF724FFAF
:1020B00008B14745E8D333480178407801EB002167
:1020C000288800EB0422914206D1401C288003E0BE
:1020D00040F2B63A4FF47A7836F814002988401E58
:1020E0008842CFDAA5F800B054B136F8140026497A
:1020F000C0EBC0008200484600F088FE23A010E03C
:10210000294840680821B1EB106F09D130881E4979
:10211000C0EBC0008200484600F078FE23A000E03B
:1021200027A000F09BFB4A4621462CA000F096FB1E
:1021300036F81400641CC0EBC00109EB8109A4B29D
:1021400036F814000028C3D14DF2D000FEF720F974
:1021500000F050FB0120A6E71C000020003C000816
:10216000440500203173C4DABCECB2E2B2BBB5BDA9
:10217000CAFDBEDDA3ACC8A1CFFBC9FDBCB60D0A2C
:102180000000000024050020001000200968656C94
:102190006C6F2CD0B4C8EB666C617368B3C9B9A618
:1021A000A3A10D0A000000000010002009D0B4C84F
:1021B000EB666C617368B3C9B9A6A3A10D0A0000F0
:1021C00009B7C7B9CCBCFEA3ACB2BBC4DCD0B4C8A1
:1021D000EB666C617368A3A10D0A000009256420F9
:1021E00025780D0A0000000001B582B04FF416708A
:1021F0000090012301AA02A90248FFF761F89DF8A7
:1022000004000EBD500000202DE9F0471D46904609
:102210000E460446FEF734FB07465FEA08004FF01F
:1022200000084FF4005A4FF0010926D034E0681C32
:1022300023D025B1FEF724FBC01BA8421DD920687E
:10224000416821F0E00141602068016821F040010F
:102250000160A06A504509D12068016821F400514D
:1022600001602068016841F40051016084F85190D8
:1022700084F850800320BDE8F0872068806836EA43
:102280000000D4D10DE0681C06D0002DD7D0FEF799
:10229000F7FAC01BA842D2D82068806836EA00004E
:1022A000F1D00020E7E770477CB50E4800680D4983
:1022B000091F09680B4A083A1268484050400A4C06
:1022C000010EC0F307422170C0F307236270A370B0
:1022D000C0B2E0701B252571CDE9000503A000F018
:1022E000BDFA7CBDF0F7FF1F0A0000200D0AC9E807
:1022F000B1B84944BAC53A20253032582530325851
:102300002530325825303258253032580D0A0D0A02
:102310000000000010B50649064A074B00200C5C7F
:1023200014541C54401CC0B20528F8D310BD000042
:102330000A000020170000201200002010B5FEF750
:10234000A5FABDE81040FFF735B930B58FB00121CF
:102350000804CDE900100024029402250491CDE97F
:1023600007504FF4E01009906846FEF777FC00B183
:10237000FEE70F20CDE90A054FF48060CDE90C405F
:102380000E9002210AA8FEF72BFB00B1FEE7FEF734
:10239000EBFB4FF47A71B0FBF1F0FFF7F7F8042094
:1023A000FFF7E7F800221146501EFEF7E7FA0FB0DC
:1023B00030BD00000D48016841F001010160416835
:1023C0000B4A1140416001680A4A114001600168EE
:1023D00021F480210160416821F4FE0141604FF445
:1023E0001F0181600449C00308607047001002406B
:1023F0000000FFF8FFFFF6FE08ED00E00148FFF7E0
:10240000DCB90000E8000020F0B50268144B154C60
:10241000154D4FF08047984205D0B84203D0A042F6
:1024200001D0A84203D122F070064A683243984294
:1024300005D0B84203D0A04201D0A84203D122F473
:102440004074CA68224302608A68C2620A68826273
:10245000984201D10969016301214161F0BD000089
:10246000002C0140000400400008004010B58468C2
:1024700042EA032224F47F440A432243826010BDCF
:10248000826822F070020A4342F0070181607047BF
:1024900010B5036A046A24F001040462846924F01C
:1024A000F00444EA021423F00A020A43846102623F
:1024B00010BD10B5036A23F0100303628369046A38
:1024C00023F4704343EA023224F0A00343EA0111EB
:1024D0008261016210BD000010B590F83910222908
:1024E00003D0322901D0022010BD8168B1F5805F90
:1024F00011D00169002901681FD0496801F07F03EC
:10250000816A4A1C82620B70C18D491E0904090C44
:10251000C18518D030E00269816A002A02685268D9
:1025200005D0D2B20A80816A491C8162ECE7C2F30D
:1025300008020A80816A891CF7E74A68816A4B1C95
:1025400083620A70E0E70168CA6822F02002CA606C
:1025500090F83910322911D00168CA6822F48072CB
:10256000CA6001684A6922F001024A615FF0010114
:1025700080F83910FFF7C2FA002010BD1221F7E7EA
:102580002DE9F041044600680169E26821F44051F8
:10259000114301612169A06808436169084321680A
:1025A000CA6841F20C639A430243CA6020684169D9
:1025B000A26921F44071114341614C4920686425AE
:1025C000322688423CD1FEF7EDFA00EBC00101EB68
:1025D000001061688900B0FBF1F7FEF7E3FA00EB49
:1025E000C00101EB00106168B0468900B0FBF1F05A
:1025F000B0FBF5F06FF01801484307EB800106EBE4
:102600000110B0FBF5F000F0F006FEF7CBFA00EB9E
:10261000C00101EB001061688900B0FBF1F0B0FB74
:10262000F5F006EB0016FEF7BDFA00EBC00101EB7A
:10263000001061688900B0FBF1F7FEF7B3FA3BE0E8
:10264000FEF798FA00EBC00101EB00106168890009
:10265000B0FBF1F7FEF78EFA00EBC00101EB0010C2
:102660006168B0468900B0FBF1F0B0FBF5F06FF0A7
:102670001801484307EB800106EB0110B0FBF5F0B1
:1026800000F0F006FEF776FA00EBC00101EB001057
:1026900061688900B0FBF1F0B0FBF5F006EB0016C5
:1026A000FEF768FA00EBC00101EB001061688900D9
:1026B000B0FBF1F7FEF75EFA00EBC00101EB001092
:1026C00061688900B0FBF1F0B0FBF5F06FF0180124
:1026D000484307EB800108EB0110B0FBF5F02168DF
:1026E00000F00F0030448860BDE8F0810038014000
:1026F00090F83910122903D0322901D002207047F6
:102700008168B1F5805F016A0BD04A1C02620268E1
:1027100009785160C18C491E0904090CC1840ED08E
:1027200017E009880268C1F30801516001690029B6
:10273000016A02D0491C0162ECE7891CFBE70168D1
:10274000CA6822F08002CA600068C16841F0400196
:10275000C160002070472DE9F0471D4690460E46A7
:102760000446FEF78DF807465FEA08004FF00009BF
:102770004FF0010808D030E0681C05D095B1FEF795
:102780007FF8C01BA8420DD82068006836EA000018
:10279000F2D127E0681C20D025B1FEF771F8C01BEC
:1027A000A8421AD92068C16821F08001C160206860
:1027B000C16821F02001C1602068C16821F48071E6
:1027C000C1602068416921F00101416184F83980CC
:1027D00084F838900320BDE8F0872068006836EA66
:1027E0000000D7D00020F6E70148FFF7B7B8000097
:1027F000A8000020094810B500680821B1EB106F4F
:1028000007D107A000F02AF80448001F00F0ECFAF6
:1028100002E00AA000F022F8002010BD043C0008ED
:10282000BFAACABCD6B4D0D0464C415348D3C3BBD0
:10283000A7B4FAC2EB21210D0A000000B7C7464C2D
:10284000415348D3A6D3C3B3CCD0F22CCEDEB7A825
:10285000D6B4D0D0210D0A00FEE700000FB4054B1E
:1028600010B503A9044A029800F018F810BC5DF8EE
:1028700014FB0000CD2D00082800002002E008C84D
:10288000121F08C1002AFAD170477047002001E0EA
:1028900001C1121F002AFBD1704700002DE9FF4F34
:1028A0008DB00F460546002606E025280BD0DDE951
:1028B0000F1290476D1C761C28780028F5D111B0B6
:1028C0003046BDE8F08F0024A246A1460122EC4923
:1028D00000E0044315F8013F203B02FA03F00842F0
:1028E000F7D128782A2810D06FF02F022878A0F18D
:1028F0003001092914D80AEB8A0102EB410144F0A6
:10290000020400EB010A6D1CF0E701CF5FEA000A48
:1029100003D544F40054CAF1000A44F002046D1CCB
:1029200028782E2817D115F8010F44F004042A281E
:102930000ED06FF02F022878A0F1300109290AD8B3
:1029400009EB890102EB410100EB01096D1CF2E783
:1029500057F8049B6D1C28786C280FD006DC4C2897
:1029600017D068280DD06A2814D104E0742810D03C
:102970007A280FD10DE044F400140AE044F48014E6
:1029800001E044F440146978814202D104F58014D6
:102990006D1C6D1C2A786E2A1FD00CDC632A31D086
:1029A00004DC002A8BD0582A11D1A3E0642A68D015
:1029B000692A0CD165E0732A2ED004DC6F2A73D00B
:1029C000702A04D19BE0752A6FD0782A6ED0104609
:1029D000DDE90F129047761C50E1C4F30250022843
:1029E00006D0032809D0042801CF09D0066045E1AC
:1029F00001CFF117C0E9006140E101CF06803DE160
:102A000006703BE117F8040B8DF8000000208DF8EC
:102A10000100EB46012003E057F804BB4FF0FF3004
:102A200061074FF0000102D40DE008F10101884672
:102A300049450FDA8045F8DB1BF808100029F4D16E
:102A400008E008F1010188468142FADB1BF8081012
:102A50000029F6D1DDE90F23AAEB080081462146C3
:102A600000F036F9304400EB080604E0DDE90F120F
:102A70001BF8010B9047B8F10108F7D221464846F0
:102A8000F7E00A21C4F302534FF0000B0891022B28
:102A900004D001CFC117032B09D00AE0FF1D27F096
:102AA0000707F7E8020108E032E01FE020E000B28B
:102AB000C117042B01D140B2C117031E71F10003ED
:102AC00007DA4FF0000CD0EB0C006CEB01012D236A
:102AD00002E0230504D52B238DF82430012303E0E5
:102AE000E30701D02023F7E7984658E00A2110E0D9
:102AF00010210EE010204FF0000B08900CE0102188
:102B00004FF0000B44F004044FF00809089103E073
:102B100008214FF0000B0891C4F30253022B04D09C
:102B200001CF0021032B06D006E0FF1D27F0070789
:102B3000F7E8020103E080B2042B00D1C0B24FF0ED
:102B4000000823072BD5702A07D0DDF820C08CF0B1
:102B5000100C5CEA0B0C05D00EE040238DF82430FD
:102B6000012308E050EA010306D030238DF8243019
:102B70008DF8252002239846DDF820C08CF0080C43
:102B80005CEA0B0C0BD150EA010301D1630706D5B7
:102B900030238DF824304FF00108A9F10109582A9B
:102BA00004D038A20B9208AA0A920BE03AA2F9E7E5
:102BB0005B46089AFDF7C6FA0B9B9B5C0A9A521E6D
:102BC0000A92137050EA0102F2D10A98ADEB0000AC
:102BD00000F1200B600702D524F4803401E04FF0AF
:102BE0000109D94502DDA9EB0B0000E0002000EB54
:102BF0000B0141440890AAEB010AE00306D4DDE989
:102C00000F232146504600F063F806444FF00009B8
:102C100008E009A911F80900DDE90F12904709F150
:102C20000109761CC145F4DBE0030CD5DDE90F2377
:102C30002146504600F04CF8064404E0DDE90F124E
:102C400030209047761C0899481E08900029F5DC32
:102C500008E00A980A990078491C0A91DDE90F12E8
:102C60009047761CBBF10001ABF1010BF1DC214672
:102C70005046DDE90F2300F019F806446D1C1BE6F1
:102C80000928010030313233343536373839616242
:102C90006364656600000000303132333435363706
:102CA0003839414243444546000000002DE9F041D7
:102CB000044600251E461746880404D405E039461C
:102CC0002020B0476D1C641EF9D52846BDE8F08170
:102CD0002DE9F041044600251E469046C80301D563
:102CE000302700E02027880404D505E04146384617
:102CF000B0476D1C641EF9D52846BDE8F081000080
:102D000070B51748FDF77CFA164C81B216A0A18069
:102D1000FFF7A4FDA0884FF6FF7500F57360B0F5CE
:102D2000604010D0A0F58070013813D0A0F62E605E
:102D3000B0F5005F05D02846A580BDE87040FDF7DE
:102D400027BB0DA007E013A0FFF788FDFFF752FD9A
:102D5000A58070BD16A0BDE87040FFF77FBD0000E4
:102D6000003800081C0000204F5441464C414720C9
:102D70003D202025780D0A000D0AC3BBD3D0B9CC65
:102D8000BCFEA3ACB5C8B4FDBDD3CAD5B9CCBCFE9E
:102D90000D0A00000D0AD6B4D0D0B9CCBCFEA3AC4D
:102DA000CEDED0E8C9FDBCB6A3A10D0A000000002C
:102DB0000D0AC9FDBCB6B9CCBCFEA3ACB5C8B4FD08
:102DC000CAFDBEDDB0FC0D0A0000000038B50446A7
:102DD0008DF800000223012269460248FEF790FEAA
:102DE000204638BDA80000200168064A1140B1F114
:102DF000005F06D14168044A9160006880F308884A
:102E0000084770470000FE2F1C0000202DE9F04706
:102E10000025904607460C462E464FF40079DFF811
:102E200054A01AE0E078A178000600EB0140617838
:102E30004A4600EB012014F8041B08444AF8250018
:102E40006D1CADB2954206D100250A493846FDF702
:102E5000D9F907F50067361DB6B24645E2D3002D15
:102E600006D02A463846BDE8F0470249FDF7CAB900
:102E7000BDE8F08758050020FDF710FDFFF765FA63
:102E8000FEF7A6FEFEF74CFFFEF7F8FEFEF71AFF70
:102E9000FDF73EFA064D4FF400544FF4FA76214602
:102EA0002846FDF7E3FC3046FDF746FBF7E7000058
:102EB00000100140000000000000000001020304B7
:102EC000060708090000000001020304EC2E0008B8
:102ED000000000202C0000007C280008182F0008AB
:102EE0002C000020D42F00008C28000800A24A04E7
:102EF00000000000000000000000000000000000D2
:102F000000000000000000000000000000000000C1
:082F10000000000000000000B9
:04000005080000ED02
:00000001FF
