:020000040800F2
:10000000F80F0020450100084F1900086718000884
:100010004D190008BB020008C522000800000000BE
:10002000000000000000000000000000771D000834
:100030003D03000800000000B51C0008E91E000890
:100040005F0100085F0100085F0100085F01000810
:100050005F0100085F0100085F0100085F01000800
:100060005F0100085F0100085F0100085F010008F0
:100070005F0100085F0100085F0100085F010008E0
:100080005F0100085F0100085F0100085F010008D0
:100090005F0100085F0100085F0100085F010008C0
:1000A0005F0100085F0100085F0100085F010008B0
:1000B0005F0100085F0100085F0100085F010008A0
:1000C0005F0100085F0100085F0100085F01000890
:1000D0005F010008B92200085F0100085F01000805
:1000E0005F0100085F0100085F0100085F01000870
:1000F0005F0100085F0100085F0100085F01000860
:100100005F0100085F0100085F0100085F0100084F
:100110005F0100085F0100085F0100085F0100083F
:100120005F0100085F0100085F0100085F0100082F
:10013000DFF80CD000F05AF800480047F927000813
:10014000F80F00200648804706480047FEE7FEE714
:10015000FEE7FEE7FEE7FEE7FEE7FEE7FEE7FEE777
:10016000611F000831010008202A04DB203A21FA2F
:1001700002F00021704721FA02F3D040C2F12002C0
:1001800091400843194670472DE9F05F054600206D
:1001900092469B4688460646814640241BE02846F8
:1001A000414647462246FFF7DFFF53465A46C01AEC
:1001B000914110D311461846224600F029F82D1A15
:1001C00067EB01084F4622460120002100F020F88D
:1001D00017EB00094E41201EA4F10104DFDC484664
:1001E00031462A464346BDE8F09F0000064C074DC5
:1001F00006E0E06840F0010394E8070098471034F7
:10020000AC42F6D3FFF798FFCC280008EC28000892
:10021000202A04DB203A00FA02F1002070479140C6
:10022000C2F1200320FA03F3194390407047000005
:10023000002002F0F1FA144C0026267000F036F887
:1002400001F022FD28466D1CEDB2642802D3002582
:1002500002F08CFA207848B1FD2810D0FE280BD08F
:10026000FF2803D009A002F02FF80AE00122611C48
:100270000D4801F035FAE5E700F062F801E000F022
:10028000B7F82670DEE70000E8000020CAE4C8EBFB
:10029000D6B8C1EEB4EDCEF3A3A1C7EBD6D8D0C289
:1002A000CAE4C8EB210D0A00A800002010B501F037
:1002B000D1FDBDE8104001F003BEFEE72DE9F0419D
:1002C00000241C27144E154D1EE000BFB0F5E05F62
:1002D00006D34FF4807126F81410A0F5E0500AE020
:1002E000B0FBF7F107FB1101B0FBF7F001B1401CC7
:1002F00026F814000020688036F81420611C08A03D
:1003000001F0E2FF641CE4B268880028DED1BDE899
:10031000F04109A001F0D8BFE00300203C0000201C
:10032000B5DA2564B4CEBDD3CAD5B4CECAFDCEAA43
:1003300025640D0A000000000D0A00007047FEE76A
:100340002DE9F04118A001F0BFFF1E4E4FF6FF75DA
:100350002B4601223446B11C1B4801F05BF9A07802
:100360002B4600EB8002E11C174801F053F90024F2
:1003700012E0611C15A001F0A7FF002504EB840723
:1003800078193044C17815A001F09EFF6D1CEDB2C4
:10039000052DF5D3641CE4B2B078A042E9D8BDE8DD
:1003A000F0410FA001F090BFC7EBCAE4C8EB49448D
:1003B000B8F6CAFDBCB04944BAC5C2EBA3BA0D0A2F
:1003C00000000000E8000020A80000200D0AB5DAB7
:1003D0002564B8F64944CEAAA3BA000025782000C7
:1003E000BDD3CAD54944CDEAB1CF210D0A000000E2
:1003F0007CB500251CA001F067FF2148017809B9F0
:10040000407850B11F4EB078A8422CD92846691CBC
:10041000CDB200F06BF800240DE0BDE87C401AA0DE
:1004200001F052BF642000F07BF8641CE1B20C467E
:100430001CA001F049FF124801F086FB10B10A2C04
:10044000F0D304E00A2C02D201F096FCDBE71B4853
:100450000279C178CDE9001283784278017818A03A
:1004600001F032FFCFE77CBD47726F75705F536557
:100470006E644669726D776172650D0A0000000056
:1004800042000020E8000020C3BBD3D0B9CCBCFEA2
:10049000A3ACC7EBB4ABCAE4B9CCBCFEA3A10D0AB4
:1004A00000000000B5DA2564B4CEB7A2CBCDB3A46A
:1004B000B6C8CAA7B0DCA3A10D0A00003500002011
:1004C00049443A257825782578257825782020B85C
:1004D000FCD0C2CAA7B0DCA3ACBCECB2E9B2BBB5DD
:1004E000BDBDD3CAD5B6CBA3A10D0A0030B4094B0C
:1004F000094D0A4C002100EB800042181A44D278C2
:100500006A546254491CC9B20529F6D330BC01F0C3
:10051000ABBA0000E80000203000002035000020C9
:1005200031B500F007F9044600F004F90099001B0A
:100530008842F9D338BD00002DE9F84FDFF8B8A1A3
:1005400000220AF1040B144601274FF00F090BF1AA
:10055000040E00BF0B6807FA04F52B40AB4274D1C0
:10056000DFF898C14E68A6EB0C0866452BD00DDC71
:10057000032E34D005DC36B3012E19D0022E2FD134
:100580001BE0112E16D0122E2AD119E0B8F5881FC3
:1005900019D006DCB8F5803F15D0B8F5801F1FD103
:1005A00011E0B8F5001F0ED0B8F5041F18D10AE00D
:1005B000CA6815E0CA68121D12E0CA6808320FE066
:1005C000CA680C320CE08A682AB1012A4FF008028E
:1005D00003D0456104E0042202E0056100E000224E
:1005E000FF2B01D8064601E000F104064FEA84051E
:1005F00001D9A5F12005D6F800C009FA05F82CEAC2
:10060000080C02FA05F54CEA050CC6F800C04D6866
:10061000ED006AD53A4DAE6946F00106AE61AD69AE
:1006200024F0030605F001050095364D06EB050C98
:10063000DCF80850A6074FEA167809FA08F6B54321
:10064000314EB04202D100261AE04EE02F4EB042A9
:1006500001D1012614E02E4EB04201D102260FE056
:100660002C4EB04201D103260AE02B4EB04201D1FC
:10067000042605E0294EB04201D1052600E00626F9
:1006800006FA08F62E43CCF808604D68DAF80060E8
:10069000ED03554601D51E4300E09E432E604D6894
:1006A000AD0305D5DBF800601E43CBF8006004E025
:1006B000DBF800509D43CBF800504D68DEF8006039
:1006C000ED02754601D51E4300E09E432E604D6845
:1006D000AD0205D5084D0C352E681E432E6004E092
:1006E000054E0C3635689D433560641C102CFFF4B4
:1006F00031AFBDE8F88F0000000401400000111088
:10070000001002400000014000080140000C0140C0
:10071000001001400014014000180140001C01407D
:100720008068084000D0012070470AB1016170471D
:100730000904FBE70148006870470000040000203E
:1007400002480168491C0160704700000400002055
:10075000074810B5016841F010010160032000F066
:1007600087F8002000F006F800F016F8002010BD11
:100770000020024010B5044600F050F94FF47A71A1
:10078000B0FBF1F000F05CFE00222146501E00F0AC
:100790004FF8002010BD00001D4808B5816941F0E8
:1007A00001018161806900F001000090052000F0E6
:1007B0005FF8002211466FF00B0000F039F80022BC
:1007C00011466FF00A0000F033F8002211466FF076
:1007D000090000F02DF800221146501F00F028F803
:1007E00000221146101F00F023F800221146901E2F
:1007F00000F01EF800221146501E00F019F80548BE
:10080000416821F0E06141F00071416008BD0000E5
:10081000001002400000014000F01F020121914041
:100820004009800000F1E020C0F80011704700008E
:10083000F0B40E4B1B680C46C3F30223C3F107054B
:10084000042D00D90425191D072901D2002300E039
:10085000DB1E012606FA05F1491E214099409E4003
:10086000761E16403143F0BC01F0FEB90CED00E0FD
:10087000064900F0070208684FF6FF03184040EAF7
:100880000220034A10430860704700000CED00E0AE
:100890000000FA052DE9F047DFF8708105460E46A5
:1008A000D8F8000000F00700B0420CD2D8F80010D1
:1008B00021F007013143C8F80010D8F8000000F01B
:1008C0000700B04277D12878514C800705D5606881
:1008D000A96820F0F000084360602878C00759D06C
:1008E0006968012001290DD0022929D05FF0020397
:1008F00093FAA3F2B2FA82F242F02002520904D033
:10090000226803E04FF40033F2E7626A93FAA3F33C
:10091000B3FA83F303F01F03984002424BD06068A0
:1009200020F0030008436060FFF704FF6968074692
:1009300041F2883001290DD00229814617D025E0E7
:100940004FF00073D4E700BFFFF7F4FEC11B494529
:1009500001D918E081466068C0F381000128F3D115
:1009600018E000BFFFF7E6FEC11B49450BD86068E1
:10097000C0F381000228F5D10CE000BFFFF7DAFEDA
:10098000C11B494502D90320BDE8F087606810F01B
:100990000C0FF3D1D8F80010404601F00701B14226
:1009A0000BD9016821F0070131430160006800F0B4
:1009B0000700B04201D00120E6E72878400705D5BE
:1009C0006068E96820F4E060084360602878000708
:1009D00006D56068296920F4605040EAC100606073
:1009E00000F052F86168F02292FAA2F201F0F001F0
:1009F000B2FA82F2D140074A515CC8400649086009
:100A00000020FFF7B7FE0020BEE7000000200240F4
:100A1000001002409A2800080000002001480068E9
:100A20007047000000000020084809490068496834
:100A30004FF4E06292FAA2F201F4E061B2FA82F2BB
:100A4000D140044A515CC8407047000000000020BB
:100A500000100240AA2800080848094900684968AF
:100A60004FF4605292FAA2F201F46051B2FA82F2AB
:100A7000D140044A515CC84070470000000000208B
:100A800000100240AA28000810B519A385B00FCBAA
:100A90008DE80F001AA01B4B006804905A681A4892
:100AA00002F00C0104291DD008291BD14FF4701449
:100AB00094FAA4F402F47011B4FA84F4E140D2037D
:100AC0001DF8011010D55A684FF4003393FAA3F3C0
:100AD00002F40032B3FA83F3DA4004AB9A5CB0FB61
:100AE000F2F0484305B010BD08484843FAE700005B
:100AF00002030405060708090A0B0C0D0E0F10105F
:100B0000010200000010024000127A0000093D00BE
:100B10002DE9F84F04460078F74DC0074FF0010665
:100B200025D068687704C0F38100012807D0686881
:100B3000C0F3810002281BD16868C00318D597FA5A
:100B4000A7F0B0FA80F040F02000400901D02868FA
:100B500000E0686A97FAA7F1B1FA81F101F01F018C
:100B600006FA01F108425ED0606800287CD05AE0A5
:100B70006068B0F5803F0BD010B1B0F5A02F11D058
:100B8000286820F480302860286820F4802002E063
:100B9000286840F480302860606828B3FFF7CAFDF9
:100BA00080460BE0286840F480202860F0E700BF12
:100BB000FFF7C0FDA0EB0800642871D897FAA7F0F2
:100BC000B0FA80F040F02000400901D0286800E031
:100BD000686A97FAA7F1B1FA81F101F01F0106FAEC
:100BE00001F10842E4D01EE0FFF7A4FD804605E0D5
:100BF000FFF7A0FDA0EB08006428DED897FAA7F065
:100C0000B0FA80F040F02000400901D0286800E0F0
:100C1000686A97FAA7F1B1FA81F101F01F0106FAAB
:100C200001F10842E4D12078DFF8D08280074FF04C
:100C300000094FF002075BD568684FF0F80B10F021
:100C40000C0F07D06868C0F3810002281CD16868C7
:100C5000C00319D497FAA7F0B0FA80F040F0200052
:100C6000400902D0286801E08BE0686A97FAA7F192
:100C7000B1FA81F101F01F0106FA01F108422CD00E
:100C8000206901287DD128E0206990B396FAA6F06A
:100C9000B0FA80F048F82060FFF74CFD824607E08C
:100CA00011E100BFFFF746FDA0EB0A00022884D83F
:100CB00097FAA7F0B0FA80F040F02000400901D088
:100CC000286800E0686A97FAA7F1B1FA81F101F0AB
:100CD0001F0106FA01F10842E4D028689BFAABF242
:100CE0006169B2FA82F220F0F8009140084328606E
:100CF00025E0FFE796FAA6F1B1FA81F148F82190D4
:100D0000FFF718FD824605E0FFF714FDA0EB0A008F
:100D10000228CCD897FAA7F0B0FA80F040F0200073
:100D2000400901D0286800E0686A97FAA7F1B1FA93
:100D300081F101F01F0106FA01F10842E4D12078A7
:100D400000076ED5A069B8B396FAA6F0B0FA80F0A5
:100D500008EB8000C0F88064FFF7ECFC824605E0F9
:100D6000FFF7E8FCA0EB0A000228A0D897FAA7F04A
:100D7000B0FA80F040F06000B6EB501F02D1286856
:100D80000CE062E197FAA7F0B0FA80F040F0600062
:100D9000B7EB501F01D1286A00E0686A97FAA7F103
:100DA000B1FA81F101F01F0106FA01F21042D7D029
:100DB0000120FFF7B5FB34E0FFE796FAA6F1B1FAA0
:100DC00081F108EB8101C1F88094FFF7B3FC824602
:100DD00006E000BFFFF7AEFCA0EB0A00022872D8C5
:100DE00097FAA7F0B0FA80F040F06000B6EB501F21
:100DF00001D128680BE097FAA7F0B0FA80F040F034
:100E00006000B7EB501F01D1286A00E0686A97FACA
:100E1000A7F1B1FA81F101F01F0106FA01F21042C7
:100E2000D8D12078400765D5E86940F08050E86166
:100E3000E869DFF8CCB000F080500090DBF80010DB
:100E400041F48071CBF80010FFF774FC824605E096
:100E5000FFF770FCA0EB0A00642834D8DBF8000030
:100E6000C005F5D5E06801280AD008B1052813D0DF
:100E7000286A20F001002862286A20F0040002E0BD
:100E8000286A40F001002862E06841F2883B90B394
:100E9000FFF750FC82460BE0286A40F0040028620D
:100EA000EEE700BFFFF746FCA0EB0A0159450AD860
:100EB00097FAA7F0B0FA80F040F04000B6EB501F70
:100EC00002D128680CE0A3E097FAA7F0B0FA80F00E
:100ED00040F04000B7EB501F01D1286A00E0686A7B
:100EE00097FAA7F1B1FA81F101F01F0206FA02F1B7
:100EF0000842D7D031E005E0001002400000424235
:100F000000700040FFF716FC824605E0FFF712FC78
:100F1000A0EB0A0159457BD897FAA7F0B0FA80F008
:100F200040F04000B6EB501F01D128680BE097FA63
:100F3000A7F0B0FA80F040F04000B7EB501F01D1AD
:100F4000286A00E0686A97FAA7F1B1FA81F101F026
:100F50001F0206FA02F10842D8D1E06980B369683D
:100F6000C1F38101022970D04FF080714F00022837
:100F7000484609D091FAA1F1B1FA81F148F821006F
:100F8000FFF7D8FB044669E08A4691FAA1F1B1FA6D
:100F900081F1C14648F82100FFF7CCFB804605E00F
:100FA000FFF7C8FBA0EB0800022854D897FAA7F077
:100FB000B0FA80F040F02000400902D0286801E03B
:100FC00061E0686A97FAA7F1B1FA81F101F01F01B7
:100FD00006FA01F10842E3D1206AB0F5803F05D15D
:100FE0006868A16820F4003008436860D4E908010B
:100FF0000843696821F47411084368609AFAAAF0FA
:10100000B0FA80F049F82060FFF794FB044606E050
:1010100021E000BFFFF78EFB001B02281BD897FAC8
:10102000A7F0B0FA80F040F02000400901D0286815
:1010300000E0686A97FAA7F1B1FA81F101F01F01A7
:1010400006FA01F10842E5D01DE01EE0FFF772FB51
:10105000001B022802D90320BDE8F88F97FAA7F0F9
:10106000B0FA80F040F02000400901D0286800E08C
:10107000686A97FAA7F1B1FA81F101F01F0106FA47
:1010800001F10842E2D10020E6E70120E4E7000098
:1010900010B5040003D094F8510010B104E0012011
:1010A00010BD204600F038F8022084F85100206876
:1010B000016821F040010160D4E901010843D4E94D
:1010C00003121143084361690843218B01F4007145
:1010D0000843E1690843216A0843A16A084321687B
:1010E0000860A069042101EA1040616A0843216890
:1010F00048602168E06A08612068C16921F40061E4
:10110000C1610449002008706065012084F8510025
:10111000002010BD0800002010B50068124986B0FC
:1011200088421ED11148C16941F48041C161C06942
:101130000F4C00F4804004904FF4204000900220B7
:1011400001900320039069462046FFF7F5F900213E
:101150004FF48040CDE90001029169462046FFF737
:10116000EBF906B010BD000000380040001002404E
:10117000000C01402DE9F8430025DDF820800446ED
:10118000ADF8005090F85100012803D094F85100B8
:1011900022287DD169B162B15BB194F85000012879
:1011A00076D0012684F8506094F85100012803D0CD
:1011B00005E00120BDE8F883322084F85100656520
:1011C000A263A387E3872163A386E386A564E5641E
:1011D000A06A4FF40057B84209D12068016821F491
:1011E000005101602068016841F4005101602068ED
:1011F0000168490603D4016841F040010160E068DC
:101200004FF48271B0F5006F606807D0002867D096
:1012100088426ED1E08E012862D06AE020B1884217
:101220000CD1E08E012809D1206B21680088C860AC
:10123000206B801C2063E08E401EE086E08E80B92B
:10124000A06AB84244D12068016841F4805101602D
:101250003EE02068C068A16B0880A06B801CA06382
:101260009EE0434600220221204600F035FD002882
:1012700074D1206B21680088C860206B801C2063BB
:10128000E08E401E0004000CE08609D1A06A00E058
:10129000C7E0B84204D12068016841F48051016080
:1012A000434600220121204600F016FD00286FD1A0
:1012B0002068C068A16B0880A06B801CA063E08FD1
:1012C000401EE087E08E0028CBD1606800286AD1FC
:1012D000434600220121204600F0FEFCF0BBB8E7A7
:1012E000206B411C216321680078C860E08E401E9D
:1012F000E086E08E98B9A06AB84204D120680168FF
:1013000041F480510160434600220121204600F053
:10131000E3FC18BB2068C068A16B087040E043463E
:1013200000220221204600F0D7FCB8B9206B411CF6
:10133000216321680078C860E08E401E0004000C24
:10134000E08607D1A06AB84204D12068016841F460
:101350008051016000224346012100E018E0204650
:1013600000F0BAFCA0B92068C168A06B421CA2635F
:101370000170E08F401EE087E08E0028CFD16068CA
:1013800088B9434600220121204600F0A5FC08B19F
:1013900003200FE72068C168A06B421CA2630170A4
:1013A000E08F401EE087A06AB84210D14346002279
:1013B0000121204600F090FC18B1606D40F0020061
:1013C0000FE02068C068ADF80000BDF8000043469B
:1013D00001228021204600F07FFC20B1606D40F0AA
:1013E00010006065D4E784F85160A06AB84214D157
:1013F00020688168C943C9060FD4616D41F00201BC
:101400006165016821F4005101602068016841F4C0
:101410000051016084F85050CBE684F85050002011
:10142000C8E60220C6E64FF0E0210428086903D090
:1014300020F004000861704740F00400FAE77047AC
:1014400010B5401EB0F1807F01D3012010BD4FF0D8
:10145000E02460610F21601700F006FC0020A0610D
:1014600007202061002010BD10B5FFF7E8FF10BD78
:101470007047000038B5044600680168C26811F082
:10148000010F02F4807204D01AB1E16B41F0010146
:10149000E1630168C1F34002416901F0010122B139
:1014A00019B1E26B42F00402E2630268C2F3800207
:1014B00022B119B1E26B42F00202E2630268C2F3A8
:1014C000C00222B119B1E16B41F00801E16301688A
:1014D000C068C1F3401100F0200019B110B12046DE
:1014E00000F062FD20680168C068C1F3C01100F01F
:1014F000800019B110B1204600F062FE2168086832
:10150000CA68C0F3801002F04002012570B16AB1D0
:10151000CA68204622F04002CA6094F83910322985
:1015200011D080F8395000BF00F09CF9E06B002822
:1015300008D0206801684068009084F8395020463F
:10154000FFF796FF38BD222180F83910ECE770B51F
:10155000040004D094F83900002510B106E0012001
:1015600070BD84F83850204600F020F8022084F83E
:1015700039002068C16821F40051C160204600F0A4
:1015800067FD2068016921F490410161206841698B
:1015900021F02A0141612068C16841F40051C16015
:1015A000E563012084F83900002070BD10B50068A3
:1015B000154986B0884225D11448816941F480419B
:1015C00081618069124C00F4804004904FF40070F7
:1015D0000090022001900320039069462046FEF708
:1015E000ABFF00212015CDE900010291694620469C
:1015F000FEF7A2FF002211462520FFF719F925204A
:10160000FFF70AF906B010BD003801400010024093
:10161000000801402DE9F047044690F8390099464A
:101620000D46012801D0122858D12DB322B394F8C9
:101630003800012852D0012684F838600027E7637B
:1016400094F8390012281AD05FF0220084F839008B
:10165000A285E2854FF48058E08D4B46401EE08520
:10166000A0684FF0000240454FF02001204616D1FF
:1016700000F0D9FDB0B904E00120BDE8F0873220C8
:10168000E4E7206900282068406803D0C1B225F84B
:10169000011B12E0C0F3080125F8021B0DE000F069
:1016A000C2FD08B10320E8E72069002820684068EF
:1016B00001D000F07F0005F8010BE08D0028CBD1B0
:1016C00094F83900322805D084F8396084F83870ED
:1016D0000020D2E7122084F83900F7E70220CCE797
:1016E00090F83930012B01D0122B2CD139B332B301
:1016F00090F83830012B26D0012380F838308162F1
:101700008285C2850021C16390F83920122A18D041
:101710005FF0220280F8392080F838100168CA682A
:1017200042F48072CA6001684A6942F001024A616B
:101730000068C16841F02001C160002070470120AD
:1017400070473222E6E70220704700000B4801464E
:10175000027849785AB1FF2A02D0002101707047FF
:10176000084A074B10881954401C108070470170BC
:10177000FF29FBD104A000F0A7BD0000E800002075
:10178000001000203C000020C7EBB7A2CBCDB9CCA5
:10179000BCFE0D0A000000002DE9F047044690F859
:1017A000390099460D46012801D0222858D12DB381
:1017B00022B394F83800012852D0012684F838600A
:1017C0000027E76394F8390022281AD05FF012004E
:1017D00084F83900A284E2844FF48058E08C4B46B0
:1017E000401EE084A0684FF0000240454FF08001A9
:1017F000204613D100F017FD08BB04E00120BDE82E
:10180000F0873220E4E728882168C0F308004860A8
:10181000206908B16D1C08E0AD1C06E000F003FD76
:1018200068B9216815F8010B4860E08C0028D5D113
:101830004B4600224021204600F0F5FC08B1032071
:10184000DDE794F83900322806D084F8396000BF0B
:1018500084F838700020D2E7222084F83900F7E7B6
:101860000220CCE77047FEE7164810B5816986B0C4
:1018700041F008018161816901F0080104918169E9
:1018800041F00401816180690F4C00F00400049074
:10189000012260212046FEF748FF602000900120D1
:1018A00001900220039069462046FEF745FE002184
:1018B0008020CDE90001029169462046FEF73CFEFA
:1018C00006B010BD00100240000C0140104810B5D9
:1018D0000E4901604FF48271416000218160C16056
:1018E0004FF400720161C0E905120822C0E9072126
:1018F000416281620A21C162FFF7CAFB002803D05E
:10190000BDE81040FEF71BBD10BD000000380040D0
:10191000500000200C4810B50A4901604FF4FA311C
:101920004160002181600C22C160C0E90412816124
:10193000C161FFF70CFE002803D0BDE81040FEF7A0
:10194000FEBC10BD00380140A8000020FEE7704733
:101950001CB50FA10522D1E90001CDE900016946BE
:10196000302000F043F905226946102000F040F8CD
:10197000002069460A5CA52A03D1401CC0B2052894
:10198000F8D3052801D001201CBD00201CBD00009B
:10199000A5A5A5A5A500000010B501228021094834
:1019A000FEF7C3FE05E008A000F08EFCC820FEF79D
:1019B000B7FDFFF7CDFF0028F5D1BDE8104007A027
:1019C00000F082BC000C01404E524632344C3031A3
:1019D000204572726F720D0A000000004E524632AE
:1019E000344C303120496E6974204F4B0D0A000091
:1019F0002DE9F041DFF83C8015460F4604460022F1
:101A000040214046FEF791FE204600F055F906467B
:101A1000002405E0FF2000F04FF93855641CE4B2C3
:101A2000AC42F7D3012240214046FEF77EFE30460D
:101A3000BDE8F081000C014070B50A4D044600225B
:101A400040212846FEF771FE204600F035F9FF20C0
:101A500000F032F90446012240212846FEF765FED7
:101A6000204670BD000C014010B5194C0022202109
:101A70002046FEF75AFE05221649302000F0B6F83F
:101A800014490522491D2A2000F0B0F80121212027
:101A900000F0D0F80121222000F0CCF81A212420F7
:101AA00000F0C8F82821252000F0C4F80F212620D6
:101AB00000F0C0F80E21202000F0BCF80122202107
:101AC0002046FEF732FEBDE810400120FEF728BD9B
:101AD000000C01403000002070B5134C0021020AB8
:101AE00020706270114AC0EBC00000BF01EB8003A0
:101AF0006518491CD35CC9B2EB701C29F6D30A489F
:101B000000F044F8202805D0217809A000F0DCFB83
:101B1000012070BD2078617800EB0122217905A0B9
:101B200000F0D2FB002070BDBE030020001000209A
:101B300025642000B7A2CBCDD6D020253364202544
:101B400033640D0A0000000010B50A4A0021435C0E
:101B50005354491CC9B22029F9D3064800F016F89D
:101B6000202801D0012010BD03A000F0ADFB002013
:101B700010BD0000BE030020B7A2CBCDB3A4B6C8F1
:101B8000B3C9B9A6A3A10D0A0000000070B5164C98
:101B90000546002220212046FEF7C7FD20222946C7
:101BA000A02000F023F8012220212046FEF7BDFDF1
:101BB00080212046FEF7B4FD0028F9D10720FFF769
:101BC0003BFF04460146272000F034F8E00605D527
:101BD000FF21E12000F02EF8102070BDA00601D5F5
:101BE000202070BDFF2070BD000C01402DE9F041A8
:101BF000DFF83C8016460D46044600224021404650
:101C0000FEF793FD204600F057F80746002405E054
:101C100015F8010B00F050F8641CE4B2B442F7D39D
:101C2000012240214046FEF780FD3846BDE8F081A4
:101C3000000C014070B50B4D0E46044600224021B9
:101C40002846FEF772FD204600F036F8044630467E
:101C500000F032F8012240212846FEF766FD2046BA
:101C600070BD0000000C01400907090E002806DACB
:101C700000F00F0000F1E02080F8141D704700F123
:101C8000E02080F80014704710B5FFF785FEFFF7DD
:101C9000EBFEBDE8104001A000F016BB4E524632EC
:101CA000344C3031204D6F64653A2053656E647357
:101CB0000D0A00007047000001B582B04FF41670A5
:101CC0000090012301AA02A90248FFF753FA9DF8E8
:101CD00004000EBD500000202DE9F0471D4690463F
:101CE0000E460446FEF726FD07465FEA08004FF061
:101CF00000084FF4005A4FF0010926D034E0681C68
:101D000023D025B1FEF716FDC01BA8421DD92068BF
:101D1000416821F0E00141602068016821F0400144
:101D20000160A06A504509D12068016821F4005182
:101D300001602068016841F40051016084F851900D
:101D400084F850800320BDE8F0872068806836EA78
:101D50000000D4D10DE0681C06D0002DD7D0FEF7CE
:101D6000E9FCC01BA842D2D82068806836EA00008F
:101D7000F1D00020E7E770472DE9FC5F00242546FD
:101D80000320FEF7CDFB234E40F2B6394FF47A78AC
:101D90004FF4527B35E000272AE00420FEF7C0FB19
:101DA000308804FB00701FFA80FA18E00220FEF76A
:101DB000B7FB514618A000F087FA6D1CADB24D4537
:101DC0000DD319480279C178CDE9001283784278A1
:101DD000017816A000F078FAFF20BDE8FC9F50467D
:101DE000FFF77AFE08B14545E0D300257F1CBFB25E
:101DF00036F81400B842D0D85846FEF791FB641C60
:101E0000E4B236F814000028C5D10FA000F05CFA47
:101E10000120E2E7E0030020B8FCD0C2D6D0B6CF64
:101E2000202025640D0A0000350000204944A3BA93
:101E30002564256425642564256420B8FCD0C2D6B9
:101E4000D0B6CF0D0A000000B7A2CBCDBDE1CAF8D5
:101E5000000000007CB50E4800680D49091F0968A4
:101E60000B4A083A1268484050400A4C010EC0F331
:101E700007422170C0F307236270A370C0B2E07004
:101E80001B252571CDE9000503A000F01DFA7CBDDE
:101E9000F0F7FF1F0E0000200D0AC9E8B1B8494451
:101EA000BAC53A20253032582530325825303258BC
:101EB00025303258253032580D0A0D0A0000000036
:101EC00010B50649064A074B00200C5C14541C54FC
:101ED000401CC0B20528F8D310BD00000900002046
:101EE000300000203500002010B5FEF729FCBDE8C9
:101EF0001040FFF7B9BA30B58FB001210804CDE921
:101F000000100024029402250491CDE907504FF4FB
:101F1000E01009906846FEF7FBFD00B1FEE70F20D8
:101F2000CDE90A054FF48060CDE90C400E90022106
:101F30000AA8FEF7AFFC00B1FEE7FEF76FFD4FF415
:101F40007A71B0FBF1F0FFF77BFA0420FFF76BFA30
:101F500000221146501EFEF76BFC0FB030BD000092
:101F60000D48016841F00101016041680B4A1140D0
:101F7000416001680A4A11400160016821F4802132
:101F80000160416821F4FE0141604FF41F0181604E
:101F90000449C00308607047001002400000FFF8C9
:101FA000FFFFF6FE08ED00E010B590F83910222989
:101FB00003D0322901D0022010BD8168B1F5805FC5
:101FC00011D00169002901681FD0496801F07F0321
:101FD000816A4A1C82620B70C18D491E0904090C7A
:101FE000C18518D030E00269816A002A026852680F
:101FF00005D0D2B20A80816A491C8162ECE7C2F343
:1020000008020A80816A891CF7E74A68816A4B1CCA
:1020100083620A70E0E70168CA6822F02002CA60A1
:1020200090F83910322911D00168CA6822F4807200
:10203000CA6001684A6922F001024A615FF0010149
:1020400080F83910FFF782FB002010BD1221F7E75E
:102050002DE9F041044600680169E26821F440512D
:10206000114301612169A06808436169084321683F
:10207000CA6841F20C639A430243CA60206841690E
:10208000A26921F44071114341614C4920686425E3
:10209000322688423CD1FEF7DFFC00EBC00101EBA9
:1020A000001061688900B0FBF1F7FEF7D5FC00EB8A
:1020B000C00101EB00106168B0468900B0FBF1F08F
:1020C000B0FBF5F06FF01801484307EB800106EB19
:1020D0000110B0FBF5F000F0F006FEF7BDFC00EBE0
:1020E000C00101EB001061688900B0FBF1F0B0FBAA
:1020F000F5F006EB0016FEF7AFFC00EBC00101EBBC
:10210000001061688900B0FBF1F7FEF7A5FC3BE029
:10211000FEF78AFC00EBC00101EB0010616889004A
:10212000B0FBF1F7FEF780FC00EBC00101EB001003
:102130006168B0468900B0FBF1F0B0FBF5F06FF0DC
:102140001801484307EB800106EB0110B0FBF5F0E6
:1021500000F0F006FEF768FC00EBC00101EB001098
:1021600061688900B0FBF1F0B0FBF5F006EB0016FA
:10217000FEF75AFC00EBC00101EB0010616889001A
:10218000B0FBF1F7FEF750FC00EBC00101EB0010D3
:1021900061688900B0FBF1F0B0FBF5F06FF0180159
:1021A000484307EB800108EB0110B0FBF5F0216814
:1021B00000F00F0030448860BDE8F0810038014035
:1021C00090F83910122903D0322901D0022070472B
:1021D0008168B1F5805F016A0BD04A1C0262026817
:1021E00009785160C18C491E0904090CC1840ED0C4
:1021F00017E009880268C1F30801516001690029EC
:10220000016A02D0491C0162ECE7891CFBE7016806
:10221000CA6822F08002CA600068C16841F04001CB
:10222000C160002070472DE9F0471D4690460E46DC
:102230000446FEF77FFA07465FEA08004FF0000900
:102240004FF0010808D030E0681C05D095B1FEF7CA
:1022500071FAC01BA8420DD82068006836EA000059
:10226000F2D127E0681C20D025B1FEF763FAC01B2D
:10227000A8421AD92068C16821F08001C160206895
:10228000C16821F02001C1602068C16821F480711B
:10229000C1602068416921F00101416184F8398001
:1022A00084F838900320BDE8F0872068006836EA9B
:1022B0000000D7D00020F6E70148FFF7DBB80000A8
:1022C000A8000020FEE700000FB4054B10B503A9DD
:1022D000044A029800F018F810BC5DF814FB0000E6
:1022E000DD2700084C00002002E008C8121F08C1CA
:1022F000002AFAD170477047002001E001C1121F87
:10230000002AFBD1704700002DE9FF4F8DB00F462A
:102310000546002606E025280BD0DDE90F12904780
:102320006D1C761C28780028F5D111B03046BDE828
:10233000F08F0024A246A1460122EC4900E00443AC
:1023400015F8013F203B02FA03F00842F7D1287844
:102350002A2810D06FF02F022878A0F13001092927
:1023600014D80AEB8A0102EB410144F0020400EBAD
:10237000010A6D1CF0E701CF5FEA000A03D544F4BF
:102380000054CAF1000A44F002046D1C28782E287B
:1023900017D115F8010F44F004042A280ED06FF06D
:1023A0002F022878A0F1300109290AD809EB890108
:1023B00002EB410100EB01096D1CF2E757F8049BA9
:1023C0006D1C28786C280FD006DC4C2817D06828A4
:1023D0000DD06A2814D104E0742810D07A280FD1C7
:1023E0000DE044F400140AE044F4801401E044F4E5
:1023F00040146978814202D104F580146D1C6D1C73
:102400002A786E2A1FD00CDC632A31D004DC002A23
:102410008BD0582A11D1A3E0642A68D0692A0CD144
:1024200065E0732A2ED004DC6F2A73D0702A04D1A1
:102430009BE0752A6FD0782A6ED01046DDE90F1226
:102440009047761C50E1C4F30250022806D00328BE
:1024500009D0042801CF09D0066045E101CFF1176A
:10246000C0E9006140E101CF06803DE106703BE13B
:1024700017F8040B8DF8000000208DF80100EB46E2
:10248000012003E057F804BB4FF0FF3061074FF025
:10249000000102D40DE008F10101884649450FDA38
:1024A0008045F8DB1BF808100029F4D108E008F19A
:1024B000010188468142FADB1BF808100029F6D199
:1024C000DDE90F23AAEB08008146214600F036F92A
:1024D000304400EB080604E0DDE90F121BF8010BA5
:1024E0009047B8F10108F7D221464846F7E00A21A3
:1024F000C4F302534FF0000B0891022B04D001CF1C
:10250000C117032B09D00AE0FF1D27F00707F7E8E2
:10251000020108E032E01FE020E000B2C117042B06
:1025200001D140B2C117031E71F1000307DA4FF069
:10253000000CD0EB0C006CEB01012D2302E0230515
:1025400004D52B238DF82430012303E0E30701D0C9
:102550002023F7E7984658E00A2110E010210EE00A
:1025600010204FF0000B08900CE010214FF0000BF2
:1025700044F004044FF00809089103E008214FF0EB
:10258000000B0891C4F30253022B04D001CF0021A9
:10259000032B06D006E0FF1D27F00707F7E802012E
:1025A00003E080B2042B00D1C0B24FF00008230733
:1025B0002BD5702A07D0DDF820C08CF0100C5CEA17
:1025C0000B0C05D00EE040238DF82430012308E0E9
:1025D00050EA010306D030238DF824308DF82520F1
:1025E00002239846DDF820C08CF0080C5CEA0B0C46
:1025F0000BD150EA010301D1630706D530238DF8D2
:1026000024304FF00108A9F10109582A04D038A25A
:102610000B9208AA0A920BE03AA2F9E75B46089AE5
:10262000FDF7B2FD0B9B9B5C0A9A521E0A92137037
:1026300050EA0102F2D10A98ADEB000000F1200B44
:10264000600702D524F4803401E04FF00109D94538
:1026500002DDA9EB0B0000E0002000EB0B01414480
:102660000890AAEB010AE00306D4DDE90F23214616
:10267000504600F063F806444FF0000908E009A94D
:1026800011F80900DDE90F12904709F10109761CE4
:10269000C145F4DBE0030CD5DDE90F2321465046AC
:1026A00000F04CF8064404E0DDE90F1230209047BA
:1026B000761C0899481E08900029F5DC08E00A9865
:1026C0000A990078491C0A91DDE90F129047761C9F
:1026D000BBF10001ABF1010BF1DC21465046DDE915
:1026E0000F2300F019F806446D1C1BE609280100B1
:1026F0003031323334353637383961626364656678
:102700000000000030313233343536373839414239
:1027100043444546000000002DE9F04104460025F1
:102720001E461746880404D405E039462020B047E9
:102730006D1C641EF9D52846BDE8F0812DE9F041F5
:10274000044600251E469046C80301D5302700E008
:102750002027880404D505E041463846B0476D1C63
:10276000641EF9D52846BDE8F081000070B50F4C15
:102770002088002816D0A188814214D160800025CD
:10278000A58025800AA0FFF79FFD61880DA0FFF7B7
:102790009BFDA11D60880870000A4870FDF78EFD42
:1027A0000D48057070BDA08070BD00003C00002089
:1027B000D3C3BBA7B3CCD0F2BDD3CAD5CDEAB3C97E
:1027C000210D0A00B4FAC2EBB3A4B6C83A2564429C
:1027D000797465730D0A0000E800002038B50446DE
:1027E0008DF800000223012269460248FEF7D4FF5B
:1027F000204638BDA800002010B5FDF7A9FFFFF75F
:102800007AFBFFF731F8FFF761F8FFF783F8FDF780
:102810000FFD002010BD000070B504460B480C4EA3
:10282000002150F8240006EB84054200286900F0DE
:102830002DF806480021103050F82420A86800F038
:1028400025F801203119087670BD0000B428000871
:102850001400002010B50B4B0B4C002253F8203015
:10286000114604EB800005E0046934F8114004B11E
:10287000521C491C8B42F7D864204243B2FBF3F050
:10288000C0B210BDB42800081400002002E000BF50
:1028900000F8011B521EFBD2704700000000000030
:1028A00000000102030406070809000000000102FD
:1028B0000304000040010000007800002000000038
:1028C000200000000028000000000F00EC28000895
:1028D0000000002050000000E82200083C29000809
:1028E00050000020B0EB0000F822000800A24A04CB
:1028F0000000000000674696531B00000000000027
:10290000192800085528000800C4002000000068AD
:102910001E01002000000F68000000000000000001
:1029200000000000000000000000000000000000A7
:0C2930000000000000000000000000009B
:0400000508000131BD
:00000001FF
